:020000040000FA
:04000000C0EF08F055
:1010740001C0C0F002C0C1F0120001C0C4F002C03F
:10108400C5F0120001C0C2F002C0C3F0120001C0DA
:10109400B8F002C0B9F0120001C0BCF002C0BDF04B
:1010A400120001C0BAF002C0BBF01200026E02507E
:1010B4007EEC08F01200F81FBA1FCF1F851FA01F77
:1010C400A71F600ED36E040ED26E000E9B6E12002C
:1010D400C50E026E1F0E036ED1EC09F07BEC0CF012
:1010E40012005EEC09F063EC08F089EC08F0DBEC2C
:1010F40008F0FBEC08F01200016E9EA884EF08F0E3
:1011040086EF08F07FEF08F001C0ADFF1200000E7B
:10111400CC6E000ECF6E000ECE6ECECFBEF0CFCF13
:10112400BFF09E90130ECD6E12001A6E6F0E026EFB
:101134001F0E036ED1EC09F01A50300F7EEC08F04C
:10114400C20E026E1F0E036ED1EC09F07BEC0CF0A4
:1011540012009EAAB0EF08F0B2EF08F0ABEF08F06F
:10116400000E0001826FABA2BAEF08F0BCEF08F0EA
:10117400BEEF08F0AB98AB88AE501200BA0EF66E14
:10118400100EF76E000EF86E00EEC6F010EE0CF0C6
:101194000900F5CFEEFFE550E150FAE100EE60F012
:1011A400430EEE6AE806FDE1000EF86E000100EF62
:1011B4000DF0080EB86E900EAB6E240EAC6ECF0E12
:1011C400AF6E000EB06E000E016E000E026E3FECAC
:1011D40008F0000E016E000E026E44EC08F0000EE2
:1011E400016E000E026E3AEC08F0000E0001826FF0
:1011F4001200080E706E900E716E240E726ECF0E79
:10120400756E000E766E000E016E000E026E4EECD0
:1012140008F0000E016E000E026E53EC08F0000E92
:10122400016E000E026E49EC08F0000E0001816FA1
:101234001200640E026E1F0E036ED1EC09F01AC088
:1012440002F01BC003F0D1EC09F0E20E026E1F0E97
:10125400036ED1EC09F01CC002F01DC003F0D1EC08
:1012640009F0DE0E026E1F0E036ED1EC09F07BEC6A
:101274000CF01200000E126E000E116E4DEF09F00C
:1012840010C003F0046A0EC005F00FC006F036EC7F
:101294000BF0114A122A11500C24D96E12500D2051
:1012A400DA6EDF50106E1050D8A45BEF09F05DEFDA
:1012B40009F042EF09F01200000E8D6E040E8C6EE0
:1012C400080E896E000E8A6E020E8B6E060E966EE6
:1012D400C00E926EFD0E936EBF0E946EBA0E956E96
:1012E400380E0F013B6F3C0E3A6F3C0E396F060E01
:1012F4003C6F000E386F000E616EF18E120001C05B
:1013040003F002C004F089EF09F0014A022A01C087
:10131400F6FF02C0F7FFF86A010EF76403D0080075
:10132400F55005D0F6CFE9FFF7CFEAFFEF500009FB
:10133400D8A49FEF09F0A1EF09F087EF09F003505B
:10134400015C016E04500258026E12005C0E000132
:10135400A56F000EA66F58C0A7F059C0A8F0000EE4
:10136400AA6F000EA96F000EAC6F000EAB6FA70E34
:10137400506E000E516E5AC052F05BC053F0A50E71
:10138400546E000E556E00EC0AF00001A951582469
:10139400D96EAA515920DA6E000EDF6E1200E7EF03
:1013A40009F002C0F6FF03C0F7FFF86A010EF76404
:1013B40003D00800F55005D0F6CFE9FFF7CFEAFFD8
:1013C400EF507EEC08F0024A032A02C0F6FF03C085
:1013D400F7FFF86A010EF76403D00800F55005D052
:1013E400F6CFE9FFF7CFEAFFEF500009D8A4FDEFED
:1013F40009F0FFEF09F0D3EF09F0120052C056F0E4
:1014040053C057F0000E00017A6F000E796F1EEF83
:101414000AF050C03EF051C03FF0560E406E000E30
:10142400416E54C042F055C043F08CEC0DF03E5078
:10143400000179273F507A2356C0F6FF57C0F7FFC3
:101444000800F5500009D8A42AEF0AF02CEF0AF09E
:101454000BEF0AF079C050F07AC051F0120020EE80
:10146400ADF0050EDE6AE806FDE25EC001F05FC085
:1014740002F081EC09F001C0B3F002C0B4F0AD0E8B
:10148400586E000E596EFB0E5A6E1F0E5B6EB3C083
:101494005CF0B4C05DF0A8EC09F0420E026E1F0EC1
:1014A400036ED1EC09F0AD0E026E000E036ED1ECAA
:1014B40009F0C20E026E1F0E036ED1EC09F0ABEC04
:1014C40008F03E0AD8A469EF0AF06BEF0AF061EF66
:1014D4000AF05EC002F05FC003F0D1EC09F07BECCF
:1014E4000CF012000001B56F340E026E1F0E036E75
:1014F400D1EC09F00001B505D8A483EF0AF085EF1B
:101504000AF08DEF0AF0EA0E026E1F0E036ED1ECA4
:1015140009F093EF0AF0EE0E026E1F0E036ED1EC8B
:1015240009F0E20E026E1F0E036ED1EC09F0ADC09D
:1015340002F0AEC003F0D1EC09F0F20E026E1F0E01
:10154400036ED1EC09F020EEB0F0040EDE6AE8067A
:10155400FDE2B00E586E000E596EFB0E5A6E1F0E51
:101564005B6EAFC05CF05D6AA8EC09F0B00E026E71
:10157400000E036ED1EC09F0C20E026E1F0E036E54
:10158400D1EC09F07BEC0CF0E806D8B4CCEF0AF00F
:10159400CEEF0AF0D0EF0AF0D2EF0AF07BEC0CF0B9
:1015A400120000017FA1D9EF0AF0DBEF0AF0E5EFAA
:1015B4000AF015C00CF016C00DF013C00EF014C0E4
:1015C4000FF03CEC09F018BEEAEF0AF0ECEF0AF079
:1015D400F2EF0AF017C01CF018C01DF0F6EF0AF085
:1015E400000E1D6E000E1C6E000E1B6E000E1A6E99
:1015F40008EF0BF0000E046E200E036E13C005F00E
:1016040014C006F036EC0BF01A4A1B2A1C501A5C64
:101614001B50800A196E1D50800A1958D8A015EF66
:101624000BF017EF0BF0FCEF0AF000017FB11DEF98
:101634000BF01FEF0BF029EF0BF015C00CF016C0E8
:101644000DF013C00EF014C00FF03CEC09F015C0FF
:1016540001F016C002F081EC09F01C500124136E55
:101664001D500220146E120005500610D8B43DEF30
:101674000BF03FEF0BF048EF0BF005500610D8A429
:1016840046EF0BF048EF0BF04DEF0BF0035058EC26
:1016940008F09AEF0BF020EE04F00550D92606501E
:1016A400DA22DE50DE10D8B45AEF0BF05CEF0BF008
:1016B40077EF0BF020EE04F00550D9260650DA221D
:1016C40010EE02F00550E1260650E222DE50E65C00
:1016D400E650800A0B6EDE50800A0B58D8B075EFC6
:1016E4000BF077EF0BF09AEF0BF020EE02F00550C1
:1016F400D9260650DA22DECF07F0DDCF08F005C088
:10170400D9FF06C0DAFFDECF09F0DDCF0AF00750BB
:101714000924D96E08500A20DA6E03C0DFFF20EED8
:1017240002F00550D9260650DA22DE2A000EDD2208
:10173400120009500A100B100C100D100E100F108F
:101744001010D8B4A8EF0BF0AAEF0BF0F2EF0BF0E7
:10175400010E116EB8EF0BF0D89009360A360B362D
:101764000C360D360E360F361036112A10AEBDEF7C
:101774000BF0BFEF0BF0AEEF0BF00950015C0A5019
:1017840002580B5003580C5004580D5005580E5075
:1017940006580F50075810500858D8A0D4EF0BF033
:1017A400D6EF0BF0E6EF0BF00950015E0A50025A37
:1017B4000B50035A0C50045A0D50055A0E50065A39
:1017C4000F50075A1050085AD89010320F320E3268
:1017D4000D320C320B320A320932112EBFEF0BF0EC
:1017E40001C001F002C002F003C003F004C004F021
:1017F40005C005F006C006F007C007F008C008F0F1
:10180400120020EE11F0070EDE6AE806FDE2095030
:101814000A100B100C100D100E100F101010D8B46D
:1018240016EF0CF018EF0CF06AEF0CF0010E196EC5
:1018340026EF0CF0D89009360A360B360C360D36E6
:101844000E360F361036192A10AE2BEF0CF02DEF92
:101854000CF01CEF0CF0D8901136123613361436F7
:1018640015361636173618360950015C0A500258D8
:101874000B5003580C5004580D5005580E50065880
:101884000F50075810500858D8A04BEF0CF04DEFEC
:101894000CF05EEF0CF00950015E0A50025A0B5036
:1018A400035A0C50045A0D50055A0E50065A0F5044
:1018B400075A1050085A1180D89010320F320E3245
:1018C4000D320C320B320A320932192E2DEF0CF084
:1018D40011C001F012C002F013C003F014C004F0F0
:1018E40015C005F016C006F017C007F018C008F0C0
:1018F400120020EE10F0050EDE6AE806FDE220EE8E
:10190400C6F010EE04F00B0EDBCFE3FFE806FCE2BA
:10191400010E186EF6EF0CF0ABEC08F0166E000E2C
:10192400196E1950020D040EF324D96E000EF42022
:10193400DA6EDECF01F0DDCF02F0100E1924D96E7D
:10194400DA6A000EDA22DF50036E03500126000E1D
:10195400022201C0F6FF02C0F7FF0800F550161876
:10196400D8A4B7EF0CF0B9EF0CF0E5EF0CF0100EC3
:101974001924D96EDA6A000EDA22DF2A100E19242D
:10198400D96EDA6A000EDA22DF50016EB30E192422
:10199400F66EF76A1E0EF7220800F5500118D8A457
:1019A400D6EF0CF0D8EF0CF0EDEF0CF0AD0E1924DF
:1019B400F66EF76A1E0EF7220800F5CF17F0000E38
:1019C400186EEDEF0CF0100E1924D96EDA6A000EC1
:1019D400DA22000EDF6E192A050E1964F4EF0CF0FA
:1019E400F6EF0CF093EF0CF01850D8A4FCEF0CF0C9
:1019F400FEEF0CF08EEF0CF01750120073EC08F0B1
:101A04006AEC08F0010E97EC08F01A0E0001B66FAC
:101A1400F80EE82EFED7B62FFCD700F07F0E1A6E14
:101A24001F0E1B6E7A0E1C6E1F0E1D6E1BEC09F032
:101A34001A0E0001B66FF80EE82EFED7B62FFCD7AB
:101A440000F0210E0001AD6F1F0EAE6FF50EAF6FEB
:101A5400EA0E74EC0AF01A0E0001B66FF80EE82EC6
:101A6400FED7B62FFCD700F0ED0E5E6E1E0E5F6E35
:101A740031EC0AF01A0E0001B66FF80EE82EFED70C
:101A8400B62FFCD700F00A0E0001B76F220EB66F16
:101A9400A10EE82EFED7B62FFCD7B72FFAD70A0E21
:101AA4000001B76F220EB66FA10EE82EFED7B62F37
:101AB400FCD7B72FFAD7B90E5E6E1E0E5F6E31ECEF
:101AC4000AF00A0E0001B76F220EB66FA10EE82EBF
:101AD400FED7B62FFCD7B72FFAD70A0E0001B76F7F
:101AE400220EB66FA10EE82EFED7B62FFCD7B72F65
:101AF400FAD7060E0001B76F130EB66FAD0EE82EBF
:101B0400FED7B62FFCD7B72FFAD700D045EF0DF08C
:101B140000EF00F040C0D9FF41C0DAFFDECFF6FF8E
:101B2400DDCFF7FF0800F550250AD8A49CEF0DF08F
:101B34009EEF0DF039EF0EF040C0D9FF41C0DAFF3F
:101B4400DE2A000EDD22000E00017C6F000E7B6F8A
:101B54007BC07FF07CC080F07D697E6940C0D9FF86
:101B640041C0DAFFDECFF6FFDDCFF7FF0800F55006
:101B7400750AD8A4C0EF0DF0C2EF0DF003EF0EF01C
:101B840040C0D9FF41C0DAFFDE2A000EDD2242C088
:101B9400D9FF43C0DAFFDFCF44F0020EDE26DFCFE9
:101BA40045F0000EDD2244C0D9FF45C0DAFFDECF88
:101BB40046F0DDCF47F046C048F047C049F04A6AD6
:101BC4004B6A4C6A4D6A4E6A4F6A3EC01EF03FC073
:101BD4001FF048C020F049C021F04AC022F04BC099
:101BE40023F04CC024F04DC025F04EC026F04FC069
:101BF40027F055EC0EF01EC03EF01FC03FF054EF2E
:101C04000EF040C0D9FF41C0DAFFDECFF6FFDDCFD2
:101C1400F7FF0800F550250AD8A413EF0EF015EFCE
:101C24000EF02CEF0EF040C0D9FF41C0DAFFDE2ADF
:101C3400000EDD22000E046E250E036E3EC005F07C
:101C44003FC006F036EC0BF0000E3F6E010E3E6E08
:101C540054EF0EF040C0D9FF41C0DAFFDE2A000E77
:101C6400DD22000E3F6E000E3E6E54EF0EF040C0BB
:101C7400D9FF41C0DAFFDECFF6FFDDCFF7FF080062
:101C8400F550036E046A3EC005F03FC006F036EC22
:101C94000BF040C0D9FF41C0DAFFDE2A000EDD227E
:101CA40026EF0EF0120000017EBF5BEF0EF05DEF39
:101CB4000EF05EEF0EF07F937EBF6BEF0EF07E5161
:101CC40006E17D05D8B069EF0EF06BEF0EF071EF11
:101CD4000EF0000E316E010E306E75EF0EF07DC009
:101CE40030F07EC031F07BC032F07CC033F020C0D5
:101CF40034F021C035F022C036F023C037F024C0C0
:101D040038F025C039F026C03AF027C03BF0000E69
:101D14003D6E1F0E3C6E000EA26F07EF0FF03C06E7
:101D2400D8A03D06830E3C24D96E000E3D20DA6E09
:101D340034C001F035C002F036C003F037C004F0FF
:101D440038C005F039C006F03AC007F03BC008F0CF
:101D54000A0E096E000E0A6E000E0B6E000E0C6E5B
:101D6400000E0D6E000E0E6E000E0F6E000E106E45
:101D74009BEC0BF001C028F002C029F003C02AF04C
:101D840004C02BF005C02CF006C02DF007C02EF0C7
:101D940008C02FF02850300FDF6E3006D8A031066F
:101DA4003206D8A0330634C001F035C002F036C084
:101DB40003F037C004F038C005F039C006F03AC06B
:101DC40007F03BC008F00A0E096E000E0A6E000E02
:101DD4000B6E000E0C6E000E0D6E000E0E6E000EDD
:101DE4000F6E000E106E03EC0CF001C034F002C054
:101DF40035F003C036F004C037F005C038F006C033
:101E040039F007C03AF008C03BF03C503D10D8B45C
:101E14000EEF0FF010EF0FF041EF0FF034503510CC
:101E240036103710381039103A103B10D8A41DEF73
:101E34000FF01FEF0FF091EF0EF031BE2CEF0FF00B
:101E4400315006E13004D8B02AEF0FF02CEF0FF038
:101E540091EF0EF033BE37EF0FF0335008E1320448
:101E6400D8A037EF0FF039EF0FF041EF0FF000017A
:101E74007FB33FEF0FF041EF0FF091EF0EF01EC074
:101E840013F01FC014F0830E3C24156E000E3D2089
:101E9400166E32C017F033C018F0D3EC0AF013C03A
:101EA4001EF014C01FF01200000102030405060214
:101EB4000504090606474554202F7570646174654E
:101EC4003F6170695F6B65793D323331464C3659F9
:101ED4005755544A4C4E364252266669656C6431F5
:101EE4003D33332E3939393000474554202F75702E
:101EF400646174653F6170695F6B65793D3233314C
:101F0400464C36595755544A4C4E36425226666909
:101F1400656C64313D38382E393939300061706967
:101F24002E7468696E67737065616B2E636F6D00E4
:101F340041542B43495053544152543D220041547F
:101F44002B43495053454E443D0041542B43575174
:101F540041500D0A0041542B43494653520D0A0087
:101F640041542B43574A41503D220041542B43577F
:101F74004D4F44453D004B616A616C4B616A616C35
:101F8400006E6F206368616E67650041542B525385
:101F9400540D0A00464F5257415244004C696E6B2F
:101FA400656400556E6C696E6B002B4950442C00BF
:101FB4005249474854007265616479000D0A0D0A5C
:101FC4000041540D0A004241434B004641494C0034
:101FD40053544F50004C45465400220D0A00222C05
:101FE4002200415445005443500055445000222CD3
:0B1FF400003830004F4B002575000046
:020000040020DA
:08000000FFFFFFFFFFFFFFFF00
:020000040030CA
:0E000000FF28193CFF3F81FF03C003E00340CF
:00000001FF
