:020000040000FA
:0400000029EF0BF0E9
:100200000047726F757020372050726F6A65637493
:1002100000313620417072696C2032303230004635
:100220004F525741524400524947485400424143BB
:0D0230004B0053544F50004C454654000005
:10023E000450800B0D6E045004240F6E03AE2AEF93
:10024E0001F02CEF01F02DEF01F00F800F50D8B41C
:10025E0033EF01F035EF01F04AEF01F00F28D8A48B
:10026E003BEF01F03DEF01F045EF01F0000E016EA6
:10027E00000E026E000E036E000E046E038E000E54
:10028E00046E52EF01F0000E016E000E026E000EB3
:10029E00036E000E046E0850800B0E6E0D500E187D
:1002AE00D8B45CEF01F05EEF01F05FEF01F00D8C62
:1002BE00085008240E6E07AE67EF01F069EF01F0EB
:1002CE006AEF01F00E800E50D8B470EF01F072EFAD
:1002DE0001F087EF01F00E28D8A478EF01F07AEF45
:1002EE0001F082EF01F0000E056E000E066E000E9C
:1002FE00076E000E086E078E000E086E8FEF01F06F
:10030E00000E056E000E066E000E076E000E086ED5
:10031E000F500E5CD8B096EF01F098EF01F0BFEFE2
:10032E0001F00DAC9DEF01F09FEF01F0A1EF01F098
:10033E00800E0D1A0FC010F00EC00FF010C00EF090
:10034E0001C010F005C001F010C005F002C010F0A1
:10035E0006C002F010C006F003C010F007C003F094
:10036E0010C007F004C010F008C004F010C008F070
:10037E00000E106E0F500EC009F00A6A095E000ED4
:10038E000A5A0ABED4EF01F00A5009E11A0E095CAE
:10039E00D8A0D4EF01F0D6EF01F00DEF02F001502E
:1003AE00021003100410D8A4DFEF01F0E2EF01F009
:1003BE00010EE3EF01F0000E106E000E016E000E46
:1003CE00026E000E036E000E046E0EC00FF016EFDE
:1003DE0002F010A0F5EF01F0F7EF01F0FDEF01F0E4
:1003EE00D89010300109106EFFEF01F0D890103246
:1003FE0001A004EF02F006EF02F007EF02F0108EFC
:10040E00043404320332023201320F2A0E500F5CD2
:10041E00D8A014EF02F016EF02F0F0EF01F00DBCD1
:10042E001BEF02F01DEF02F05DEF02F00F50D8A4AB
:10043E0023EF02F025EF02F02FEF02F0000E016E17
:10044E00000E026E000E036E000E046E7EEF03F0C1
:10045E00055001260650022207500322085004229E
:10046E0004A03CEF02F03EEF02F0EAEF02F010A023
:10047E0043EF02F045EF02F04BEF02F0D890103050
:10048E000109106E4DEF02F0D890103201A052EF1C
:10049E0002F054EF02F055EF02F0108E04340432E5
:1004AE000332023201320F2AEAEF02F00550015CEC
:1004BE0006500258075003580450800A096E08501F
:1004CE00800A0958D8B06EEF02F070EF02F09BEF81
:1004DE0002F00150055C096E025006580A6E035078
:1004EE0007580B6E045008580C6EFF0E0924016E4F
:1004FE00FF0E0A20026EFF0E0B20036EFF0E0C2065
:10050E00046E800E0D1A106C1050D8A491EF02F0EC
:10051E0093EF02F0A3EF02F0010E0126000E02226D
:10052E0003220422A3EF02F00550015E0650025A88
:10053E000750035A0850045A0150021003100410B9
:10054E00D8A4ACEF02F0AEEF02F0E3EF02F01050E1
:10055E00D8A4B4EF02F0B6EF02F0E3EF02F0000E13
:10056E00016E000E026E000E036E000E046E7EEF24
:10057E0003F0D890013602360336043610AECAEFB9
:10058E0002F0CCEF02F0CDEF02F0018010A0D2EF1E
:10059E0002F0D4EF02F0D8EF02F0D8801036DAEF86
:1005AE0002F0D89010360F50D8B4E0EF02F0E2EF20
:1005BE0002F0E3EF02F00F0603AEE8EF02F0EAEF0F
:1005CE0002F0C0EF02F0000E0E6E10AEF1EF02F070
:1005DE00F3EF02F00BEF03F010C009F07F0E0916D7
:1005EE00D8B4FCEF02F0FEEF02F002EF03F0010EC2
:1005FE000E6E0BEF03F001A007EF03F009EF03F00F
:10060E000BEF03F0FEEF02F00E50D8B411EF03F033
:10061E0013EF03F03EEF03F0010E0126000E02224F
:10062E000322042204A01EEF03F020EF03F03EEF9E
:10063E0003F001C009F002C00AF003C00BF004C0C1
:10064E000CF00C340C320B320A32093209C001F0B4
:10065E000AC002F00BC003F00CC004F00F28D8B48F
:10066E003BEF03F03DEF03F03EEF03F00F2A0F28B0
:10067E00D8B444EF03F046EF03F04EEF03F00F5003
:10068E00D8A44CEF03F04EEF03F060EF03F0000E32
:10069E00016E000E026E000E036E000E046E0F5001
:1006AE00D8A45CEF03F05EEF03F060EF03F0000EF2
:1006BE000D6E0FA065EF03F067EF03F06AEF03F026
:1006CE00038E6BEF03F0039ED8900F30046E0DAEC9
:1006DE0073EF03F075EF03F076EF03F0048E01C0B5
:1006EE0001F002C002F003C003F004C004F01200D7
:1006FE000450800B116E04500424186E03AE8AEF62
:10070E0003F08CEF03F08DEF03F018801850D8B47F
:10071E0093EF03F095EF03F0AAEF03F01828D8A497
:10072E009BEF03F09DEF03F0A5EF03F0000E016EBB
:10073E00000E026E000E036E000E046E038E000E8F
:10074E00046EB2EF03F0000E016E000E026E000E8C
:10075E00036E000E046E0850800B111A0850082408
:10076E00196E07AEBDEF03F0BFEF03F0C0EF03F05D
:10077E0019801950D8B4C6EF03F0C8EF03F0DDEFBF
:10078E0003F01928D8A4CEEF03F0D0EF03F0D8EF82
:10079E0003F0000E056E000E066E000E076E000EC4
:1007AE00086E078E000E086EE5EF03F0000E056E64
:1007BE00000E066E000E076E000E086E0550061037
:1007CE0007100810D8A4EEEF03F0F0EF03F008EFD7
:1007DE0004F0000E016E000E026E000E036E000E8F
:1007EE00046E800E03127F0E04121150041201C00B
:1007FE0001F002C002F003C003F004C004F04BEF9E
:10080E0005F01850D8A40EEF04F010EF04F01AEF14
:10081E0004F0000E016E000E026E000E036E000E4E
:10082E00046E4BEF05F0195018C009F00A6A095E04
:10083E00000E0A5A7F0E0924126E000E0A20136E45
:10084E0001C00DF002C00EF003C00FF004C010F096
:10085E00000E016E000E026E000E036E000E046E90
:10086E00000E146E000E156E000E166E000E176E34
:10087E00000E196E7BEF04F01950D8B449EF04F056
:10088E004BEF04F062EF04F0D8900D360E360F36B3
:10089E001036D890013602360336043617AE5AEFAC
:1008AE0004F05CEF04F05DEF04F00180D890143694
:1008BE0015361636173605500D5C06500E58075075
:1008CE000F5808501058D8A06FEF04F071EF04F0D5
:1008DE007AEF04F0178C05500D5E06500E5A075035
:1008EE000F5A0850105A192A190E196481EF04F084
:1008FE0083EF04F043EF04F00D500E100F101010A4
:10090E00D8B48CEF04F08EEF04F0A6EF04F0148050
:10091E00A6EF04F0D890013602360336043617AE31
:10092E009BEF04F09DEF04F09EEF04F00180D89051
:10093E0014361536163617361206D8A0130603AE21
:10094E00ABEF04F0ADEF04F091EF04F0000E196E72
:10095E0017AEB4EF04F0B6EF04F0DAEF04F0FF0ECA
:10096E001414096EFF0E15140A6EFF0E16140B6E7C
:10097E007F0E17140C6E09500A100B100C10D8B401
:10098E00CBEF04F0CDEF04F0D1EF04F0010E196EB1
:10099E00DAEF04F001A0D6EF04F0D8EF04F0DAEFAE
:1009AE0004F0CDEF04F01950D8B4E0EF04F0E2EF0C
:1009BE0004F006EF05F0010E0126000E02220322BE
:1009CE00042204A0EDEF04F0EFEF04F006EF05F0C3
:1009DE0001C009F002C00AF003C00BF004C00CF015
:1009EE000C340C320B320A32093209C001F00AC043
:1009FE0002F00BC003F00CC004F0124A132A13BE0F
:100A0E0011EF05F0135008E11228D8A011EF05F0F0
:100A1E0013EF05F01EEF05F0000E136E1268000EB8
:100A2E00016E000E026E000E036E000E046E13BEFB
:100A3E002BEF05F0135006E11204D8B029EF05F0A4
:100A4E002BEF05F039EF05F0000E136E000E126E4F
:100A5E00000E016E000E026E000E036E000E046E8E
:100A6E00000E116E12C018F018A040EF05F042EF04
:100A7E0005F045EF05F0038E46EF05F0039ED89086
:100A8E001830046EFCEF03F0120034EC0BF0E8ECBF
:100A9E0009F0010E046E010EB5EC09F0010E096E9F
:100AAE00020E0A6E47EC0AF0020E046E020EB5EC50
:100ABE0009F0110E096E020E0A6E47EC0AF03FECB9
:100ACE000BF00009D8B46EEF05F070EF05F0D6EF1D
:100ADE0005F0E7EC0AF0346E460E3418D8A47AEF1F
:100AEE0005F07CEF05F090EF05F01F0E066E020E7E
:100AFE00076EC9EC08F0020E2B6E040E2A6EBA0EAB
:100B0E00E82EFED72A2EFCD72B2EFAD700D0DCEFFC
:100B1E0005F0420E3418D8A497EF05F099EF05F0C2
:100B2E00A1EF05F02D0E066E020E076EC9EC08F051
:100B3E0082EF05F04C0E3418D8A4A8EF05F0AAEFFA
:100B4E0005F0B2EF05F0370E066E020E076EC9EC19
:100B5E0008F082EF05F0520E3418D8A4B9EF05F064
:100B6E00BBEF05F0C3EF05F0270E066E020E076E03
:100B7E00C9EC08F082EF05F0530E3418D8A4CAEF72
:100B8E0005F0CCEF05F0D4EF05F0320E066E020E36
:100B9E00076EC9EC08F082EF05F0DCEF05F0320EBF
:100BAE00066E020E076EC9EC08F0000E1E6E000EE9
:100BBE001F6E900E206E410E216E4BEC08F01AC087
:100BCE0022F01BC023F01CC024F01DC025F04BECFE
:100BDE0007F0D8A0F5EF05F0F7EF05F024EF06F0DB
:100BEE00320E066E020E076EC9EC08F08B843D0EB7
:100BFE002B6EE10E2A6E400EE82EFED72A2EFCD763
:100C0E002B2EFAD72D0E066E020E076EC9EC08F0CB
:100C1E00060E2B6E130E2A6EAE0EE82EFED72A2E61
:100C2E00FCD72B2EFAD7320E066E020E076EC9ECCB
:100C3E0008F0E7EC0AF0E7EC0AF0000E1E6E000E6C
:100C4E001F6E900E206E410E216ECDEC07F01AC075
:100C5E0022F01BC023F01CC024F01DC025F04BEC6D
:100C6E0007F0D8A03DEF06F03FEF06F06CEF06F070
:100C7E00320E066E020E076EC9EC08F08B843D0E26
:100C8E002B6EE10E2A6E400EE82EFED72A2EFCD7D2
:100C9E002B2EFAD71F0E066E020E076EC9EC08F049
:100CAE00060E2B6E130E2A6EAE0EE82EFED72A2ED1
:100CBE00FCD72B2EFAD7320E066E020E076EC9EC3B
:100CCE0008F0E7EC0AF0E7EC0AF08B9466EF05F01B
:100CDE0000EF00F0116E1150D8B478EF06F07AEFF5
:100CEE0006F09CEF06F00CBE81EF06F07FEF06F0EB
:100CFE009CEF06F009C00DF00AC00EF00BC00FF00D
:100D0E000CC010F00D1E0E1E0F1E101E0D2A000E12
:100D1E000E220F2210220DC013F00EC014F00FC0C1
:100D2E0015F010C016F0A4EF06F009C013F00AC0BB
:100D3E0014F00BC015F00CC016F009500A100B1071
:100D4E000C10D8A4ADEF06F0AFEF06F0B9EF06F039
:100D5E00000E096E000E0A6E000E0B6E000E0C6E6B
:100D6E004AEF07F0960E126EC3EF06F0122AD890D5
:100D7E001632153214321332000E13140D6E000E8D
:100D8E0014140E6E000E15140F6EFE0E1614106E49
:100D9E000D500E100F101010D8A4D8EF06F0DAEF89
:100DAE0006F0BDEF06F0E8EF06F0122A010E13264C
:100DBE00000E142215221622D89016321532143235
:100DCE001332000E13140D6E000E14140E6E000E60
:100DDE0015140F6EFF0E1614106E0D500E100F1010
:100DEE001010D8A4FDEF06F0FFEF06F0DCEF06F0D2
:100DFE0007EF07F01206D89013361436153616364E
:100E0E0015BE0CEF07F00EEF07F016EF07F0020E0F
:100E1E00126014EF07F016EF07F001EF07F012B0B3
:100E2E001BEF07F01DEF07F01EEF07F0159ED89091
:100E3E00123212C00DF00E6A0F6A106A0DC010F059
:100E4E000F6A0E6A0D6A0D5013120E5014120F50C7
:100E5E001512105016121150D8B438EF07F03AEFA1
:100E6E0007F042EF07F00CBE41EF07F03FEF07F03F
:100E7E0042EF07F0168E13C009F014C00AF015C029
:100E8E000BF016C00CF01200000E1E14266E000E93
:100E9E001F14276E800E2014286E7F0E2114296ECB
:100EAE002650271028102910D8A460EF07F062EF03
:100EBE0007F06AEF07F0000E1E6E000E1F6E000E9A
:100ECE00206E000E216E000E2214266E000E2314CC
:100EDE00276E800E2414286E7F0E2514296E265040
:100EEE00271028102910D8A47FEF07F081EF07F004
:100EFE0089EF07F0000E226E000E236E000E246E98
:100F0E00000E256E21AE8EEF07F090EF07F099EFF1
:100F1E0007F01E6C1F1ED8B01F2A201ED8B0202A24
:100F2E00800E215625AE9EEF07F0A0EF07F0A9EF39
:100F3E0007F0226C231ED8B0232A241ED8B0242AF0
:100F4E00800E2556000E1E1A000E1F1A000E201AB5
:100F5E00800E211A000E221A000E231A000E241AD9
:100F6E00800E251A22501E5C23501F5824502058E4
:100F7E0025502158D8B0C6EF07F0C8EF07F0CBEFD9
:100F8E0007F0D890CCEF07F0D8801200000E436E19
:100F9E00000E446E000E456E000E466E000E476E3D
:100FAE00000E486E000E496E000E4A6E8A82060EC4
:100FBE00E82EFED700D08A9281A0E8EF07F0EAEF84
:100FCE0007F0E3EF07F099EC0BF081B0F1EF07F0CB
:100FDE00F3EF07F0ECEF07F00BEC0BF001C009F0AC
:100FEE0002C00AF00B6A0C6A000E71EC06F009C022
:100FFE0047F00AC048F00BC049F00CC04AF097EC1D
:10100E000BF0000E026E000E016ED3EC0AF047C01C
:10101E0001F048C002F049C003F04AC004F0AE0E21
:10102E00056E470E066E6B0E076E420E086E7FEC57
:10103E0003F001C043F002C044F003C045F004C009
:10104E0046F043C001F044C002F045C003F046C074
:10105E0004F0000E056E000E066E800E076E3F0E3B
:10106E00086E1FEC01F001C043F002C044F003C053
:10107E0045F004C046F043C01AF044C01BF045C012
:10108E001CF046C01DF01200000E436E000E446EA2
:10109E00000E456E000E466E000E476E000E486E38
:1010AE00000E496E000E4A6E8C80060EE82EFED79C
:1010BE0000D08C9083A266EF08F068EF08F061EF25
:1010CE0008F099EC0BF083B26FEF08F071EF08F0B7
:1010DE006AEF08F00BEC0BF001C009F002C00AF049
:1010EE000B6A0C6A000E71EC06F009C047F00AC0DC
:1010FE0048F00BC049F00CC04AF097EC0BF0000E14
:10110E00026E000E016ED3EC0AF047C001F048C02B
:10111E0002F049C003F04AC004F0AE0E056E470E51
:10112E00066E6B0E076E420E086E7FEC03F001C06A
:10113E0043F002C044F003C045F004C046F043C083
:10114E0001F044C002F045C003F046C004F0000EAA
:10115E00056E000E066E800E076E3F0E086E1FECBB
:10116E0001F001C043F002C044F003C045F004C0DA
:10117E0046F043C01AF044C01BF045C01CF046C0F8
:10118E001DF0120006C001F007C002F01F0E036E24
:10119E00020E046E79EC09F001500210D8A4DAEFB9
:1011AE0008F0DCEF08F0E0EF08F07DEC0BF03AEF22
:1011BE0009F006C001F007C002F02D0E036E020EFC
:1011CE00046E79EC09F001500210D8A4F1EF08F08A
:1011DE00F3EF08F0F7EF08F082EC0BF03AEF09F0BE
:1011EE0006C001F007C002F0370E036E020E046E49
:1011FE0079EC09F001500210D8A408EF09F00AEFBB
:10120E0009F00EEF09F073EC0BF03AEF09F006C09F
:10121E0001F007C002F0270E036E020E046E79EC89
:10122E0009F001500210D8A41FEF09F021EF09F0C8
:10123E0025EF09F078EC0BF03AEF09F006C001F05B
:10124E0007C002F0320E036E020E046E79EC09F046
:10125E0001500210D8A436EF09F038EF09F03AEF3A
:10126E0009F06EEC0BF01200086E08500F0B026EB8
:10127E000850F00B036E8C8603380F0B19EC0AF036
:10128E008B88820E056E330E046E00F00406D8A015
:10129E00050605BE5BEF09F0055008E10404D8A071
:1012AE005BEF09F05DEF09F04CEF09F08B980250FF
:1012BE0019EC0AF08B88820E076E330E066E00F064
:1012CE000606D8A0070607BE75EF09F0075008E11D
:1012DE000604D8A075EF09F077EF09F066EF09F074
:1012EE008B9812007FEF09F0014A022A034A042A62
:1012FE0001C0F6FF02C0F7FF0800F5CF05F003C0EE
:10130E00F6FF04C0F7FF0800F5500518D8A492EFB9
:10131E0009F094EF09F0A2EF09F001C0F6FF02C048
:10132E00F7FF0800F5500009D8A4A0EF09F0A2EFCE
:10133E0009F07BEF09F001C0F6FF02C0F7FF0800CD
:10134E00F5CF05F003C0F6FF04C0F7FF0800F55017
:10135E00055C016E026AD8A002061200056E050435
:10136E00D8A4BCEF09F0BEEF09F0CFEF09F004509E
:10137E007F0F086E08380F0B066E08500F0B076EA6
:10138E000650FBEC0AF00750FBEC0AF0E7EF09F011
:10139E00020E0518D8A4D6EF09F0D8EF09F0E7EF42
:1013AE0009F00450BF0F086E08380F0B066E085078
:1013BE000F0B076E0650FBEC0AF00750FBEC0AF021
:1013CE001200000E19EC0AF0030EFBEC0AF00D0EE3
:1013DE00046EFC0EE82EFED7042EFCD7030EFBEC9B
:1013EE000AF01D0E046E910EE82EFED7042EFCD7C9
:1013FE0000F0030EFBEC0AF0020EFBEC0AF0020EFC
:10140E00FBEC0AF0080EFBEC0AF0000EFBEC0AF007
:10141E000C0EFBEC0AF0000EFBEC0AF0060EFBECD9
:10142E000AF01200016E01A01FEF0AF021EF0AF080
:10143E0024EF0AF0898E25EF0AF0899E01A22AEF89
:10144E000AF02CEF0AF02FEF0AF0898C30EF0AF039
:10145E00899C01A435EF0AF037EF0AF03AEF0AF053
:10146E008B803BEF0AF08B9001A640EF0AF042EF23
:10147E000AF045EF0AF08B8246EF0AF08B921200CB
:10148E00000E0E6E000E0D6E5DEF0AF00D5009246B
:10149E000B6E0E500A200C6E0BC0F6FF0CC0F7FF41
:1014AE000800F5503BEC09F00D4A0E2A0D500924A8
:1014BE000B6E0E500A200C6E0BC0F6FF0CC0F7FF21
:1014CE000800F5500009D8A46FEF0AF071EF0AF08A
:1014DE004DEF0AF01200000E8D6E040E8C6E080E8B
:1014EE00896E000E8A6E000E8B6E060E966E000EC4
:1014FE00926EFD0E936EA80E946EB60E956E380E0D
:10150E000F013B6F0C0E3A6F3C0E396F060E3C6F9F
:10151E00000E386F000E616EF18E1200080E706EA6
:10152E00900E716E240E726ECF0E756E000E766E6C
:10153E00000E016E000E026E55EC0BF0000E016EE9
:10154E00000E026E50EC0BF0000E016E000E026EDD
:10155E005AEC0BF0000E4B6E1200080EB86E900E89
:10156E00AB6E240EAC6ECF0EAF6E000EB06E000ED4
:10157E00016E000E026E64EC0BF0000E016E000E9A
:10158E00026E5FEC0BF0000E016E000E026E69EC47
:10159E000BF0000E4C6E1200CDA4D8EF0AF0DAEF6D
:1015AE000AF0E2EF0AF0CD900250CF6E01C0CEFFEE
:1015BE00CD80E6EF0AF00250CF6E01C0CEFF1200D2
:1015CE009EAAECEF0AF0EEEF0AF0E7EF0AF0000E3B
:1015DE004C6EABA2F5EF0AF0F7EF0AF0F9EF0AF056
:1015EE00AB98AB88AE501200036E8C96035019EC7C
:1015FE000AF08B880B0E026E620EE82EFED7022EBC
:10160E00FCD700D08B981200CD82CECF08F0CFCF72
:10161E0007F00750036E0850056E03C006F005C0B4
:10162E0001F006C002F01200000ECC6E000ECF6E5E
:10163E00000ECE6ECECF3BF0CFCF3CF09E90130E71
:10164E00CD6E120000EE43F00A0EEE6AE806FDE1E2
:10165E00000EF86E00014CEF05F072EC0AF049EC4A
:10166E000BF01BEC0BF0B4EC0AF095EC0AF0120048
:10167E009EBA44EF0BF047EF0BF0010E48EF0BF064
:10168E00000E1200600ED36E040ED26E000E9B6E14
:10169E00120001C037F002C038F0120001C039F05C
:1016AE0002C03AF0120001C035F002C036F012004E
:1016BE0001C03FF002C040F0120001C041F002C074
:1016CE0042F0120001C03DF002C03EF012009DEC4F
:1016DE000BF09BEC0BF012008BEC0BF09BEC0BF079
:1016EE0012009DEC0BF087EC0BF012008BEC0BF064
:1016FE0087EC0BF0120093EC0BF08FEC0BF012005A
:10170E008D808988899A1200898089848992120035
:10171E008D808998898A1200898089948982120025
:10172E00CD901200CD8012008D9012008990120083
:020000040020DA
:08000000FFFFFFFFFFFFFFFF00
:020000040030CA
:0E000000FF28193CFF3F81FF03C003E00340CF
:00000001FF
