:020000040000FA
:0400000054EF0BF0BE
:100200000047726F757020372050726F6A65637493
:1002100000313620417072696C2032303230004635
:100220004F525741524400524947485400424143BB
:0D0230004B0053544F50004C454654000005
:10023E000450800B0D6E045004240F6E03AE2AEF93
:10024E0001F02CEF01F02DEF01F00F800F50D8B41C
:10025E0033EF01F035EF01F04AEF01F00F28D8A48B
:10026E003BEF01F03DEF01F045EF01F0000E016EA6
:10027E00000E026E000E036E000E046E038E000E54
:10028E00046E52EF01F0000E016E000E026E000EB3
:10029E00036E000E046E0850800B0E6E0D500E187D
:1002AE00D8B45CEF01F05EEF01F05FEF01F00D8C62
:1002BE00085008240E6E07AE67EF01F069EF01F0EB
:1002CE006AEF01F00E800E50D8B470EF01F072EFAD
:1002DE0001F087EF01F00E28D8A478EF01F07AEF45
:1002EE0001F082EF01F0000E056E000E066E000E9C
:1002FE00076E000E086E078E000E086E8FEF01F06F
:10030E00000E056E000E066E000E076E000E086ED5
:10031E000F500E5CD8B096EF01F098EF01F0BFEFE2
:10032E0001F00DAC9DEF01F09FEF01F0A1EF01F098
:10033E00800E0D1A0FC010F00EC00FF010C00EF090
:10034E0001C010F005C001F010C005F002C010F0A1
:10035E0006C002F010C006F003C010F007C003F094
:10036E0010C007F004C010F008C004F010C008F070
:10037E00000E106E0F500EC009F00A6A095E000ED4
:10038E000A5A0ABED4EF01F00A5009E11A0E095CAE
:10039E00D8A0D4EF01F0D6EF01F00DEF02F001502E
:1003AE00021003100410D8A4DFEF01F0E2EF01F009
:1003BE00010EE3EF01F0000E106E000E016E000E46
:1003CE00026E000E036E000E046E0EC00FF016EFDE
:1003DE0002F010A0F5EF01F0F7EF01F0FDEF01F0E4
:1003EE00D89010300109106EFFEF01F0D890103246
:1003FE0001A004EF02F006EF02F007EF02F0108EFC
:10040E00043404320332023201320F2A0E500F5CD2
:10041E00D8A014EF02F016EF02F0F0EF01F00DBCD1
:10042E001BEF02F01DEF02F05DEF02F00F50D8A4AB
:10043E0023EF02F025EF02F02FEF02F0000E016E17
:10044E00000E026E000E036E000E046E7EEF03F0C1
:10045E00055001260650022207500322085004229E
:10046E0004A03CEF02F03EEF02F0EAEF02F010A023
:10047E0043EF02F045EF02F04BEF02F0D890103050
:10048E000109106E4DEF02F0D890103201A052EF1C
:10049E0002F054EF02F055EF02F0108E04340432E5
:1004AE000332023201320F2AEAEF02F00550015CEC
:1004BE0006500258075003580450800A096E08501F
:1004CE00800A0958D8B06EEF02F070EF02F09BEF81
:1004DE0002F00150055C096E025006580A6E035078
:1004EE0007580B6E045008580C6EFF0E0924016E4F
:1004FE00FF0E0A20026EFF0E0B20036EFF0E0C2065
:10050E00046E800E0D1A106C1050D8A491EF02F0EC
:10051E0093EF02F0A3EF02F0010E0126000E02226D
:10052E0003220422A3EF02F00550015E0650025A88
:10053E000750035A0850045A0150021003100410B9
:10054E00D8A4ACEF02F0AEEF02F0E3EF02F01050E1
:10055E00D8A4B4EF02F0B6EF02F0E3EF02F0000E13
:10056E00016E000E026E000E036E000E046E7EEF24
:10057E0003F0D890013602360336043610AECAEFB9
:10058E0002F0CCEF02F0CDEF02F0018010A0D2EF1E
:10059E0002F0D4EF02F0D8EF02F0D8801036DAEF86
:1005AE0002F0D89010360F50D8B4E0EF02F0E2EF20
:1005BE0002F0E3EF02F00F0603AEE8EF02F0EAEF0F
:1005CE0002F0C0EF02F0000E0E6E10AEF1EF02F070
:1005DE00F3EF02F00BEF03F010C009F07F0E0916D7
:1005EE00D8B4FCEF02F0FEEF02F002EF03F0010EC2
:1005FE000E6E0BEF03F001A007EF03F009EF03F00F
:10060E000BEF03F0FEEF02F00E50D8B411EF03F033
:10061E0013EF03F03EEF03F0010E0126000E02224F
:10062E000322042204A01EEF03F020EF03F03EEF9E
:10063E0003F001C009F002C00AF003C00BF004C0C1
:10064E000CF00C340C320B320A32093209C001F0B4
:10065E000AC002F00BC003F00CC004F00F28D8B48F
:10066E003BEF03F03DEF03F03EEF03F00F2A0F28B0
:10067E00D8B444EF03F046EF03F04EEF03F00F5003
:10068E00D8A44CEF03F04EEF03F060EF03F0000E32
:10069E00016E000E026E000E036E000E046E0F5001
:1006AE00D8A45CEF03F05EEF03F060EF03F0000EF2
:1006BE000D6E0FA065EF03F067EF03F06AEF03F026
:1006CE00038E6BEF03F0039ED8900F30046E0DAEC9
:1006DE0073EF03F075EF03F076EF03F0048E01C0B5
:1006EE0001F002C002F003C003F004C004F01200D7
:1006FE000450800B116E04500424186E03AE8AEF62
:10070E0003F08CEF03F08DEF03F018801850D8B47F
:10071E0093EF03F095EF03F0AAEF03F01828D8A497
:10072E009BEF03F09DEF03F0A5EF03F0000E016EBB
:10073E00000E026E000E036E000E046E038E000E8F
:10074E00046EB2EF03F0000E016E000E026E000E8C
:10075E00036E000E046E0850800B111A0850082408
:10076E00196E07AEBDEF03F0BFEF03F0C0EF03F05D
:10077E0019801950D8B4C6EF03F0C8EF03F0DDEFBF
:10078E0003F01928D8A4CEEF03F0D0EF03F0D8EF82
:10079E0003F0000E056E000E066E000E076E000EC4
:1007AE00086E078E000E086EE5EF03F0000E056E64
:1007BE00000E066E000E076E000E086E0550061037
:1007CE0007100810D8A4EEEF03F0F0EF03F008EFD7
:1007DE0004F0000E016E000E026E000E036E000E8F
:1007EE00046E800E03127F0E04121150041201C00B
:1007FE0001F002C002F003C003F004C004F04BEF9E
:10080E0005F01850D8A40EEF04F010EF04F01AEF14
:10081E0004F0000E016E000E026E000E036E000E4E
:10082E00046E4BEF05F0195018C009F00A6A095E04
:10083E00000E0A5A7F0E0924126E000E0A20136E45
:10084E0001C00DF002C00EF003C00FF004C010F096
:10085E00000E016E000E026E000E036E000E046E90
:10086E00000E146E000E156E000E166E000E176E34
:10087E00000E196E7BEF04F01950D8B449EF04F056
:10088E004BEF04F062EF04F0D8900D360E360F36B3
:10089E001036D890013602360336043617AE5AEFAC
:1008AE0004F05CEF04F05DEF04F00180D890143694
:1008BE0015361636173605500D5C06500E58075075
:1008CE000F5808501058D8A06FEF04F071EF04F0D5
:1008DE007AEF04F0178C05500D5E06500E5A075035
:1008EE000F5A0850105A192A190E196481EF04F084
:1008FE0083EF04F043EF04F00D500E100F101010A4
:10090E00D8B48CEF04F08EEF04F0A6EF04F0148050
:10091E00A6EF04F0D890013602360336043617AE31
:10092E009BEF04F09DEF04F09EEF04F00180D89051
:10093E0014361536163617361206D8A0130603AE21
:10094E00ABEF04F0ADEF04F091EF04F0000E196E72
:10095E0017AEB4EF04F0B6EF04F0DAEF04F0FF0ECA
:10096E001414096EFF0E15140A6EFF0E16140B6E7C
:10097E007F0E17140C6E09500A100B100C10D8B401
:10098E00CBEF04F0CDEF04F0D1EF04F0010E196EB1
:10099E00DAEF04F001A0D6EF04F0D8EF04F0DAEFAE
:1009AE0004F0CDEF04F01950D8B4E0EF04F0E2EF0C
:1009BE0004F006EF05F0010E0126000E02220322BE
:1009CE00042204A0EDEF04F0EFEF04F006EF05F0C3
:1009DE0001C009F002C00AF003C00BF004C00CF015
:1009EE000C340C320B320A32093209C001F00AC043
:1009FE0002F00BC003F00CC004F0124A132A13BE0F
:100A0E0011EF05F0135008E11228D8A011EF05F0F0
:100A1E0013EF05F01EEF05F0000E136E1268000EB8
:100A2E00016E000E026E000E036E000E046E13BEFB
:100A3E002BEF05F0135006E11204D8B029EF05F0A4
:100A4E002BEF05F039EF05F0000E136E000E126E4F
:100A5E00000E016E000E026E000E036E000E046E8E
:100A6E00000E116E12C018F018A040EF05F042EF04
:100A7E0005F045EF05F0038E46EF05F0039ED89086
:100A8E001830046EFCEF03F012005FEC0BF013EC69
:100A9E000AF0010E046E010EE0EC09F0010E096E73
:100AAE00020E0A6E72EC0AF0020E046E020EE0ECFA
:100ABE0009F0110E096E020E0A6E72EC0AF06AEC63
:100ACE000BF00009D8B46EEF05F070EF05F0D6EF1D
:100ADE0005F012EC0BF0346E460E3418D8A47AEFF3
:100AEE0005F07CEF05F090EF05F01F0E066E020E7E
:100AFE00076EF4EC08F0020E2B6E040E2A6EBA0E80
:100B0E00E82EFED72A2EFCD72B2EFAD700D0DCEFFC
:100B1E0005F0420E3418D8A497EF05F099EF05F0C2
:100B2E00A1EF05F02D0E066E020E076EF4EC08F026
:100B3E0082EF05F04C0E3418D8A4A8EF05F0AAEFFA
:100B4E0005F0B2EF05F0370E066E020E076EF4ECEE
:100B5E0008F082EF05F0520E3418D8A4B9EF05F064
:100B6E00BBEF05F0C3EF05F0270E066E020E076E03
:100B7E00F4EC08F082EF05F0530E3418D8A4CAEF47
:100B8E0005F0CCEF05F0D4EF05F0320E066E020E36
:100B9E00076EF4EC08F082EF05F0DCEF05F0320E94
:100BAE00066E020E076EF4EC08F0000E1E6E000EBE
:100BBE001F6E900E206E410E216E76EC08F01AC05C
:100BCE0022F01BC023F01CC024F01DC025F076ECD3
:100BDE0007F0D8A0F5EF05F0F7EF05F039EF06F0C6
:100BEE00320E066E020E076EF4EC08F08B843D0E8C
:100BFE002B6EE10E2A6E400EE82EFED72A2EFCD763
:100C0E002B2EFAD78B942D0E066E020E076EF4EC79
:100C1E0008F0060E2B6E130E2A6EAE0EE82EFED7C1
:100C2E002A2EFCD72B2EFAD7320E066E020E076E28
:100C3E00F4EC08F06AEC0BF00009D8B429EF06F0DA
:100C4E002BEF06F039EF06F012EC0BF06AEC0BF01E
:100C5E000009D8B435EF06F037EF06F039EF06F09D
:100C6E0012EC0BF0000E1E6E000E1F6E900E206E1C
:100C7E00410E216EF8EC07F01AC022F01BC023F0D3
:100C8E001CC024F01DC025F076EC07F0D8A052EF62
:100C9E0006F054EF06F066EF05F0320E066E020E09
:100CAE00076EF4EC08F08B843D0E2B6EE10E2A6E6F
:100CBE00400EE82EFED72A2EFCD72B2EFAD78B9479
:100CCE001F0E066E020E076EF4EC08F0060E2B6E6B
:100CDE00130E2A6EAE0EE82EFED72A2EFCD72B2E22
:100CEE00FAD7320E066E020E076EF4EC08F06AECBE
:100CFE000BF00009D8B486EF06F088EF06F066EF29
:100D0E0005F012EC0BF06AEC0BF00009D8B492EF80
:100D1E0006F094EF06F098EF06F012EC0BF066EF8B
:100D2E0005F066EF05F000EF00F0116E1150D8B42B
:100D3E00A3EF06F0A5EF06F0C7EF06F00CBEACEF82
:100D4E0006F0AAEF06F0C7EF06F009C00DF00AC0D4
:100D5E000EF00BC00FF00CC010F00D1E0E1E0F1E6D
:100D6E00101E0D2A000E0E220F2210220DC013F09F
:100D7E000EC014F00FC015F010C016F0CFEF06F035
:100D8E0009C013F00AC014F00BC015F00CC016F019
:100D9E0009500A100B100C10D8A4D8EF06F0DAEF99
:100DAE0006F0E4EF06F0000E096E000E0A6E000E5D
:100DBE000B6E000E0C6E75EF07F0960E126EEEEFC8
:100DCE0006F0122AD8901632153214321332000E53
:100DDE0013140D6E000E14140E6E000E15140F6EFD
:100DEE00FE0E1614106E0D500E100F101010D8A40B
:100DFE0003EF07F005EF07F0E8EF06F013EF07F04B
:100E0E00122A010E1326000E142215221622D89035
:100E1E001632153214321332000E13140D6E000EEC
:100E2E0014140E6E000E15140F6EFF0E1614106EA7
:100E3E000D500E100F101010D8A428EF07F02AEF47
:100E4E0007F007EF07F032EF07F01206D8901336CF
:100E5E0014361536163615BE37EF07F039EF07F094
:100E6E0041EF07F0020E12603FEF07F041EF07F07F
:100E7E002CEF07F012B046EF07F048EF07F049EFFE
:100E8E0007F0159ED890123212C00DF00E6A0F6A3E
:100E9E00106A0DC010F00F6A0E6A0D6A0D50131213
:100EAE000E5014120F501512105016121150D8B4B5
:100EBE0063EF07F065EF07F06DEF07F00CBE6CEF18
:100ECE0007F06AEF07F06DEF07F0168E13C009F00A
:100EDE0014C00AF015C00BF016C00CF01200000E74
:100EEE001E14266E000E1F14276E800E2014286E00
:100EFE007F0E2114296E2650271028102910D8A4F1
:100F0E008BEF07F08DEF07F095EF07F0000E1E6EDA
:100F1E00000E1F6E000E206E000E216E000E2214AB
:100F2E00266E000E2314276E800E2414286E7F0E5C
:100F3E002514296E2650271028102910D8A4AAEFA0
:100F4E0007F0ACEF07F0B4EF07F0000E226E000EC4
:100F5E00236E000E246E000E256E21AEB9EF07F043
:100F6E00BBEF07F0C4EF07F01E6C1F1ED8B01F2A90
:100F7E00201ED8B0202A800E215625AEC9EF07F0CC
:100F8E00CBEF07F0D4EF07F0226C231ED8B0232A44
:100F9E00241ED8B0242A800E2556000E1E1A000ECE
:100FAE001F1A000E201A800E211A000E221A000E91
:100FBE00231A000E241A800E251A22501E5C23506E
:100FCE001F582450205825502158D8B0F1EF07F063
:100FDE00F3EF07F0F6EF07F0D890F7EF07F0D880B1
:100FEE001200000E436E000E446E000E456E000E93
:100FFE00466E000E476E000E486E000E496E000ED5
:10100E004A6E8A82060EE82EFED700D08A9281A002
:10101E0013EF08F015EF08F00EEF08F0C4EC0BF02C
:10102E0081B01CEF08F01EEF08F017EF08F036EC59
:10103E000BF001C009F002C00AF00B6A0C6A000E38
:10104E009CEC06F009C047F00AC048F00BC049F00E
:10105E000CC04AF0C2EC0BF0000E026E000E016ED8
:10106E00FEEC0AF047C001F048C002F049C003F0A0
:10107E004AC004F0AE0E056E470E066E6B0E076E7E
:10108E00420E086E7FEC03F001C043F002C044F044
:10109E0003C045F004C046F043C001F044C002F066
:1010AE0045C003F046C004F0000E056E000E066E3D
:1010BE00800E076E3F0E086E1FEC01F001C043F06C
:1010CE0002C044F003C045F004C046F043C01AF01D
:1010DE0044C01BF045C01CF046C01DF01200000EAF
:1010EE00436E000E446E000E456E000E466E000EF0
:1010FE00476E000E486E000E496E000E4A6E8C80D2
:10110E00060EE82EFED700D08C9083A291EF08F049
:10111E0093EF08F08CEF08F0C4EC0BF083B29AEF6B
:10112E0008F09CEF08F095EF08F036EC0BF001C0DC
:10113E0009F002C00AF00B6A0C6A000E9CEC06F075
:10114E0009C047F00AC048F00BC049F00CC04AF085
:10115E00C2EC0BF0000E026E000E016EFEEC0AF0F9
:10116E0047C001F048C002F049C003F04AC004F085
:10117E00AE0E056E470E066E6B0E076E420E086EB5
:10118E007FEC03F001C043F002C044F003C045F011
:10119E0004C046F043C001F044C002F045C003F065
:1011AE0046C004F0000E056E000E066E800E076E31
:1011BE003F0E086E1FEC01F001C043F002C044F078
:1011CE0003C045F004C046F043C01AF044C01BF003
:1011DE0045C01CF046C01DF0120006C001F007C04D
:1011EE0002F01F0E036E020E046EA4EC09F0015005
:1011FE000210D8A405EF09F007EF09F00BEF09F084
:10120E00A8EC0BF065EF09F006C001F007C002F084
:10121E002D0E036E020E046EA4EC09F001500210A6
:10122E00D8A41CEF09F01EEF09F022EF09F0ADEC87
:10123E000BF065EF09F006C001F007C002F0370EA3
:10124E00036E020E046EA4EC09F001500210D8A435
:10125E0033EF09F035EF09F039EF09F09EEC0BF0A2
:10126E0065EF09F006C001F007C002F0270E036E0D
:10127E00020E046EA4EC09F001500210D8A44AEF3D
:10128E0009F04CEF09F050EF09F0A3EC0BF065EF0D
:10129E0009F006C001F007C002F0320E036E020E16
:1012AE00046EA4EC09F001500210D8A461EF09F00D
:1012BE0063EF09F065EF09F099EC0BF01200086E80
:1012CE0008500F0B026E0850F00B036E8C8603381D
:1012DE000F0B44EC0AF08B88820E056E330E046EF3
:1012EE0000F00406D8A0050605BE86EF09F00550ED
:1012FE0008E10404D8A086EF09F088EF09F077EF33
:10130E0009F08B98025044EC0AF08B88820E076E1F
:10131E00330E066E00F00606D8A0070607BEA0EF35
:10132E0009F0075008E10604D8A0A0EF09F0A2EFDB
:10133E0009F091EF09F08B981200AAEF09F0014A1B
:10134E00022A034A042A01C0F6FF02C0F7FF080072
:10135E00F5CF05F003C0F6FF04C0F7FF0800F55007
:10136E000518D8A4BDEF09F0BFEF09F0CDEF09F0D5
:10137E0001C0F6FF02C0F7FF0800F5500009D8A41F
:10138E00CBEF09F0CDEF09F0A6EF09F001C0F6FFA3
:10139E0002C0F7FF0800F5CF05F003C0F6FF04C04A
:1013AE00F7FF0800F550055C016E026AD8A0020630
:1013BE001200056E0504D8A4E7EF09F0E9EF09F075
:1013CE00FAEF09F004507F0F086E08380F0B066E07
:1013DE0008500F0B076E065026EC0BF0075026EC4C
:1013EE000BF012EF0AF0020E0518D8A401EF0AF066
:1013FE0003EF0AF012EF0AF00450BF0F086E083820
:10140E000F0B066E08500F0B076E065026EC0BF0F6
:10141E00075026EC0BF01200000E44EC0AF0030EFF
:10142E0026EC0BF00D0E046EFC0EE82EFED7042EED
:10143E00FCD7030E26EC0BF01D0E046E910EE82E5B
:10144E00FED7042EFCD700F0030E26EC0BF0020E96
:10145E0026EC0BF0020E26EC0BF0080E26EC0BF031
:10146E00000E26EC0BF00C0E26EC0BF0000E26EC0C
:10147E000BF0060E26EC0BF01200016E01A04AEFE7
:10148E000AF04CEF0AF04FEF0AF0898E50EF0AF097
:10149E00899E01A255EF0AF057EF0AF05AEF0AF0B3
:1014AE00898C5BEF0AF0899C01A460EF0AF062EF71
:1014BE000AF065EF0AF08B8066EF0AF08B9001A6BA
:1014CE006BEF0AF06DEF0AF070EF0AF08B8271EF9E
:1014DE000AF08B921200000E0E6E000E0D6E88EF4B
:1014EE000AF00D5009240B6E0E500A200C6E0BC024
:1014FE00F6FF0CC0F7FF0800F55066EC09F00D4A38
:10150E000E2A0D5009240B6E0E500A200C6E0BC0C5
:10151E00F6FF0CC0F7FF0800F5500009D8A49AEFAB
:10152E000AF09CEF0AF078EF0AF01200000E8D6EB2
:10153E00040E8C6E080E896E000E8A6E000E8B6E77
:10154E00060E966E000E926EFD0E936EA80E946EA3
:10155E00B60E956E380E0F013B6F0C0E3A6F3C0EA9
:10156E00396F060E3C6F000E386F000E616EF18EF5
:10157E001200080E706E900E716E240E726ECF0EEB
:10158E00756E000E766E000E016E000E026E80EC11
:10159E000BF0000E016E000E026E7BEC0BF0000ED7
:1015AE00016E000E026E85EC0BF0000E4B6E1200FB
:1015BE00080EB86E900EAB6E240EAC6ECF0EAF6EE4
:1015CE00000EB06E000E016E000E026E8FEC0BF070
:1015DE00000E016E000E026E8AEC0BF0000E016E14
:1015EE00000E026E94EC0BF0000E4C6E1200CDA4A9
:1015FE0003EF0BF005EF0BF00DEF0BF0CD9002505B
:10160E00CF6E01C0CEFFCD8011EF0BF00250CF6E2A
:10161E0001C0CEFF12009EAA17EF0BF019EF0BF0D0
:10162E0012EF0BF0000E4C6EABA220EF0BF022EF80
:10163E000BF024EF0BF0AB98AB88AE501200036E9C
:10164E008C96035044EC0AF08B880B0E026E620EE1
:10165E00E82EFED7022EFCD700D08B981200CD823A
:10166E00CECF08F0CFCF07F00750036E0850056EAF
:10167E0003C006F005C001F006C002F01200000E15
:10168E00CC6E000ECF6E000ECE6ECECF3BF0CFCF17
:10169E003CF09E90130ECD6E120000EE43F00A0E3B
:1016AE00EE6AE806FDE1000EF86E00014CEF05F063
:1016BE009DEC0AF074EC0BF046EC0BF0DFEC0AF04C
:1016CE00C0EC0AF012009EBA6FEF0BF072EF0BF047
:1016DE00010E73EF0BF0000E1200600ED36E040EAF
:1016EE00D26E000E9B6E120001C037F002C038F0B1
:1016FE00120001C039F002C03AF0120001C035F0FC
:10170E0002C036F0120001C03FF002C040F01200DD
:10171E0001C041F002C042F0120001C03DF002C013
:10172E003EF01200C8EC0BF0C6EC0BF01200B6EC5B
:10173E000BF0C6EC0BF01200C8EC0BF0B2EC0BF099
:10174E001200B6EC0BF0B2EC0BF01200BEEC0BF08C
:10175E00BAEC0BF012008D808988899A120089806C
:10176E008984899212008D808998898A12008980D5
:10177E00899489821200CD901200CD8012008D9036
:06178E0012008990120018
:020000040020DA
:08000000FFFFFFFFFFFFFFFF00
:020000040030CA
:0E000000FF28193CFF3F81FF03C003E00340CF
:00000001FF
