:020000040000FA
:04000000E8EF0AF02B
:100200000047726F757020372050726F6A65637493
:10021000003720417072696C203230323000464F16
:100220005257415244005249474854004241434BBF
:100230000053544F50004C45465400000450800B6E
:100240000D6E045004240F6E03AE29EF01F02BEF66
:1002500001F02CEF01F00F800F50D8B432EF01F015
:1002600034EF01F049EF01F00F28D8A43AEF01F084
:100270003CEF01F044EF01F0000E016E000E026E43
:10028000000E036E000E046E038E000E046E51EF1E
:1002900001F0000E016E000E026E000E036E000EE5
:1002A000046E0850800B0E6E0D500E18D8B45BEF24
:1002B00001F05DEF01F05EEF01F00D8C08500824B5
:1002C0000E6E07AE66EF01F068EF01F069EF01F026
:1002D0000E800E50D8B46FEF01F071EF01F086EF91
:1002E00001F00E28D8A477EF01F079EF01F081EF4B
:1002F00001F0000E056E000E066E000E076E000E79
:10030000086E078E000E086E8EEF01F0000E056E6F
:10031000000E066E000E076E000E086E0F500E5C8B
:10032000D8B095EF01F097EF01F0BEEF01F00DAC02
:100330009CEF01F09EEF01F0A0EF01F0800E0D1A8E
:100340000FC010F00EC00FF010C00EF001C010F082
:1003500005C001F010C005F002C010F006C002F0A8
:1003600010C006F003C010F007C003F010C007F083
:1003700004C010F008C004F010C008F0000E106EA9
:100380000F500EC009F00A6A095E000E0A5A0ABE32
:10039000D3EF01F00A5009E11A0E095CD8A0D3EF9F
:1003A00001F0D5EF01F00CEF02F001500210031044
:1003B0000410D8A4DEEF01F0E1EF01F0010EE2EF4E
:1003C00001F0000E106E000E016E000E026E000EA7
:1003D000036E000E046E0EC00FF015EF02F010A0B9
:1003E000F4EF01F0F6EF01F0FCEF01F0D8901030DF
:1003F0000109106EFEEF01F0D890103201A003EF5A
:1004000002F005EF02F006EF02F0108E0434043221
:100410000332023201320F2A0E500F5CD8A013EFC4
:1004200002F015EF02F0EFEF01F00DBC1AEF02F051
:100430001CEF02F05CEF02F00F50D8A422EF02F0A4
:1004400024EF02F02EEF02F0000E016E000E026E9D
:10045000000E036E000E046E7DEF03F005500126C2
:1004600006500222075003220850042204A03BEF4A
:1004700002F03DEF02F0E9EF02F010A042EF02F0CF
:1004800044EF02F04AEF02F0D89010300109106EEC
:100490004CEF02F0D890103201A051EF02F053EF70
:1004A00002F054EF02F0108E0434043203320232B0
:1004B00001320F2AE9EF02F00550015C06500258A4
:1004C000075003580450800A096E0850800A0958E2
:1004D000D8B06DEF02F06FEF02F09AEF02F001502A
:1004E000055C096E025006580A6E035007580B6EE1
:1004F000045008580C6EFF0E0924016EFF0E0A20EE
:10050000026EFF0E0B20036EFF0E0C20046E800E99
:100510000D1A106C1050D8A490EF02F092EF02F078
:10052000A2EF02F0010E0126000E02220322042295
:10053000A2EF02F00550015E0650025A0750035A1E
:100540000850045A0150021003100410D8A4ABEF55
:1005500002F0ADEF02F0E2EF02F01050D8A4B3EFDA
:1005600002F0B5EF02F0E2EF02F0000E016E000EB5
:10057000026E000E036E000E046E7DEF03F0D89045
:10058000013602360336043610AEC9EF02F0CBEF67
:1005900002F0CCEF02F0018010A0D1EF02F0D3EF17
:1005A00002F0D7EF02F0D8801036D9EF02F0D890E1
:1005B00010360F50D8B4DFEF02F0E1EF02F0E2EFB7
:1005C00002F00F0603AEE7EF02F0E9EF02F0BFEF33
:1005D00002F0000E0E6E10AEF0EF02F0F2EF02F03D
:1005E0000AEF03F010C009F07F0E0916D8B4FBEF34
:1005F00002F0FDEF02F001EF03F0010E0E6E0AEFC4
:1006000003F001A006EF03F008EF03F00AEF03F098
:10061000FDEF02F00E50D8B410EF03F012EF03F02C
:100620003DEF03F0010E0126000E022203220422F8
:1006300004A01DEF03F01FEF03F03DEF03F001C036
:1006400009F002C00AF003C00BF004C00CF00C3437
:100650000C320B320A32093209C001F00AC002F032
:100660000BC003F00CC004F00F28D8B43AEF03F02D
:100670003CEF03F03DEF03F00F2A0F28D8B443EF0F
:1006800003F045EF03F04DEF03F00F50D8A44BEF0C
:1006900003F04DEF03F05FEF03F0000E016E000E6C
:1006A000026E000E036E000E046E0F50D8A45BEFB6
:1006B00003F05DEF03F05FEF03F0000E0D6E0FA08F
:1006C00064EF03F066EF03F069EF03F0038E6AEF67
:1006D00003F0039ED8900F30046E0DAE72EF03F05E
:1006E00074EF03F075EF03F0048E01C001F002C057
:1006F00002F003C003F004C004F012000450800BA9
:10070000116E04500424186E03AE89EF03F08BEFD2
:1007100003F08CEF03F018801850D8B492EF03F078
:1007200094EF03F0A9EF03F01828D8A49AEF03F090
:100730009CEF03F0A4EF03F0000E016E000E026EBA
:10074000000E036E000E046E038E000E046EB1EFF9
:1007500003F0000E016E000E026E000E036E000E1E
:10076000046E0850800B111A08500824196E07AE49
:10077000BCEF03F0BEEF03F0BFEF03F01980195098
:10078000D8B4C5EF03F0C7EF03F0DCEF03F019288E
:10079000D8A4CDEF03F0CFEF03F0D7EF03F0000EB6
:1007A000056E000E066E000E076E000E086E078EB8
:1007B000000E086EE4EF03F0000E056E000E066EEC
:1007C000000E076E000E086E055006100710081088
:1007D000D8A4EDEF03F0EFEF03F007EF04F0000E05
:1007E000016E000E026E000E036E000E046E800E8F
:1007F00003127F0E04121150041201C001F002C056
:1008000002F003C003F004C004F04AEF05F01850F2
:10081000D8A40DEF04F00FEF04F019EF04F0000E70
:10082000016E000E026E000E036E000E046E4AEFA3
:1008300005F0195018C009F00A6A095E000E0A5A3C
:100840007F0E0924126E000E0A20136E01C00DF0F7
:1008500002C00EF003C00FF004C010F0000E016ED5
:10086000000E026E000E036E000E046E000E146E7B
:10087000000E156E000E166E000E176E000E196E2D
:100880007AEF04F01950D8B448EF04F04AEF04F0BE
:1008900061EF04F0D8900D360E360F361036D89032
:1008A000013602360336043617AE59EF04F05BEF1B
:1008B00004F05CEF04F00180D8901436153616363B
:1008C000173605500D5C06500E5807500F5808504B
:1008D0001058D8A06EEF04F070EF04F079EF04F038
:1008E000178C05500D5E06500E5A07500F5A0850CF
:1008F000105A192A190E196480EF04F082EF04F0DF
:1009000042EF04F00D500E100F101010D8B48BEF02
:1009100004F08DEF04F0A5EF04F01480A5EF04F0CF
:10092000D890013602360336043617AE9AEF04F03B
:100930009CEF04F09DEF04F00180D890143615363A
:10094000163617361206D8A0130603AEAAEF04F027
:10095000ACEF04F090EF04F0000E196E17AEB3EF99
:1009600004F0B5EF04F0D9EF04F0FF0E1414096E93
:10097000FF0E15140A6EFF0E16140B6E7F0E171461
:100980000C6E09500A100B100C10D8B4CAEF04F00A
:10099000CCEF04F0D0EF04F0010E196ED9EF04F0A3
:1009A00001A0D5EF04F0D7EF04F0D9EF04F0CCEFBD
:1009B00004F01950D8B4DFEF04F0E1EF04F005EFD4
:1009C00005F0010E0126000E02220322042204A0DB
:1009D000ECEF04F0EEEF04F005EF05F001C009F0D4
:1009E00002C00AF003C00BF004C00CF00C340C324F
:1009F0000B320A32093209C001F00AC002F00BC002
:100A000003F00CC004F0124A132A13BE10EF05F0D5
:100A1000135008E11228D8A010EF05F012EF05F0EE
:100A20001DEF05F0000E136E1268000E016E000E31
:100A3000026E000E036E000E046E13BE2AEF05F068
:100A4000135006E11204D8B028EF05F02AEF05F0A4
:100A500038EF05F0000E136E000E126E000E016EE0
:100A6000000E026E000E036E000E046E000E116E7C
:100A700012C018F018A03FEF05F041EF05F044EF69
:100A800005F0038E45EF05F0039ED8901830046EF4
:100A9000FBEF03F01200F3EC0AF0A7EC09F0010EF3
:100AA000046E010E74EC09F0010E096E020E0A6E5E
:100AB00006EC0AF0020E046E020E74EC09F0110E40
:100AC000096E020E0A6E06EC0AF0FEEC0AF000094E
:100AD000D8B46DEF05F06FEF05F0D5EF05F0A6EC9B
:100AE0000AF0346E460E3418D8A479EF05F07BEF87
:100AF00005F08FEF05F01E0E066E020E076E88ECF5
:100B000008F0020E2B6E040E2A6EBA0EE82EFED7E7
:100B10002A2EFCD72B2EFAD700D0E8EF05F0420E94
:100B20003418D8A496EF05F098EF05F0A0EF05F083
:100B30002C0E066E020E076E88EC08F081EF05F0B1
:100B40004C0E3418D8A4A7EF05F0A9EF05F0B1EFCB
:100B500005F0360E066E020E076E88EC08F081EF87
:100B600005F0520E3418D8A4B8EF05F0BAEF05F02E
:100B7000C2EF05F0260E066E020E076E88EC08F036
:100B800081EF05F0530E3418D8A4C9EF05F0CBEF70
:100B900005F0D3EF05F0310E066E020E076E88ECFD
:100BA00008F081EF05F0E8EF05F0310E066E020E59
:100BB000076E88EC08F0E8EF05F0310E066E020EC5
:100BC000076E88EC08F08B84850EE82EFED700F0C7
:100BD000000E1E6E000E1F6E400E206E410E216E26
:100BE0000AEC08F01AC022F01BC023F01CC024F04D
:100BF0001DC025F00AEC07F0D8B001EF06F003EFB6
:100C000006F0DDEF05F010EF06F0310E066E020E75
:100C1000076E88EC08F08B84850EE82EFED700F076
:100C2000000E1E6E000E1F6E400E206E410E216ED5
:100C30008CEC07F01AC022F01BC023F01CC024F07B
:100C40001DC025F00AEC07F0D8B029EF06F02BEF15
:100C500006F005EF06F08B9465EF05F000EF00F06D
:100C6000116E1150D8B437EF06F039EF06F05BEF94
:100C700006F00CBE40EF06F03EEF06F05BEF06F02C
:100C800009C00DF00AC00EF00BC00FF00CC010F040
:100C90000D1E0E1E0F1E101E0D2A000E0E220F22FC
:100CA00010220DC013F00EC014F00FC015F010C0CC
:100CB00016F063EF06F009C013F00AC014F00BC081
:100CC00015F00CC016F009500A100B100C10D8A427
:100CD0006CEF06F06EEF06F078EF06F0000E096E8E
:100CE000000E0A6E000E0B6E000E0C6E09EF07F080
:100CF000960E126E82EF06F0122AD8901632153236
:100D000014321332000E13140D6E000E14140E6EF6
:100D1000000E15140F6EFE0E1614106E0D500E10F0
:100D20000F101010D8A497EF06F099EF06F07CEFA3
:100D300006F0A7EF06F0122A010E1326000E142269
:100D400015221622D8901632153214321332000EA4
:100D500013140D6E000E14140E6E000E15140F6E8B
:100D6000FF0E1614106E0D500E100F101010D8A498
:100D7000BCEF06F0BEEF06F09BEF06F0C6EF06F004
:100D80001206D890133614361536163615BECBEF2C
:100D900006F0CDEF06F0D5EF06F0020E1260D3EFAD
:100DA00006F0D5EF06F0C0EF06F012B0DAEF06F06D
:100DB000DCEF06F0DDEF06F0159ED890123212C07F
:100DC0000DF00E6A0F6A106A0DC010F00F6A0E6AFD
:100DD0000D6A0D5013120E5014120F5015121050B0
:100DE00016121150D8B4F7EF06F0F9EF06F001EF44
:100DF00007F00CBE00EF07F0FEEF06F001EF07F082
:100E0000168E13C009F014C00AF015C00BF016C0FE
:100E10000CF01200000E1E14266E000E1F14276E1A
:100E2000800E2014286E7F0E2114296E2650271064
:100E300028102910D8A41FEF07F021EF07F029EFA1
:100E400007F0000E1E6E000E1F6E000E206E000ECC
:100E5000216E000E2214266E000E2314276E800EC3
:100E60002414286E7F0E2514296E26502710281072
:100E70002910D8A43EEF07F040EF07F048EF07F045
:100E8000000E226E000E236E000E246E000E256EE4
:100E900021AE4DEF07F04FEF07F058EF07F01E6C53
:100EA0001F1ED8B01F2A201ED8B0202A800E21561F
:100EB00025AE5DEF07F05FEF07F068EF07F0226CFB
:100EC000231ED8B0232A241ED8B0242A800E2556EB
:100ED000000E1E1A000E1F1A000E201A800E211A74
:100EE000000E221A000E231A000E241A800E251A54
:100EF00022501E5C23501F58245020582550215842
:100F0000D8B085EF07F087EF07F08AEF07F0D890A9
:100F10008BEF07F0D8801200000E436E000E446E77
:100F2000000E456E000E466E000E476E000E486EB7
:100F3000000E496E000E4A6E8A82060EE82EFED71B
:100F400000D08A9281A0A7EF07F0A9EF07F0A2EFE7
:100F500007F058EC0BF081B0B0EF07F0B2EF07F0FC
:100F6000ABEF07F0CAEC0AF001C009F002C00AF0CA
:100F70000B6A0C6A000E30EC06F009C047F00AC09C
:100F800048F00BC049F00CC04AF056EC0BF0000ED4
:100F9000026E000E016E92EC0AF047C001F048C0EC
:100FA00002F049C003F04AC004F0AE0E056E470ED1
:100FB000066E6B0E076E420E086E7EEC03F001C0EB
:100FC00043F002C044F003C045F004C046F043C003
:100FD00001F044C002F045C003F046C004F0000E2A
:100FE000056E000E066E800E076E3F0E086E1EEC3C
:100FF00001F001C043F002C044F003C045F004C05A
:1010000046F043C01AF044C01BF045C01CF046C077
:101010001DF01200000E436E000E446E000E456E71
:10102000000E466E000E476E000E486E000E496EB2
:10103000000E4A6E8C80060EE82EFED700D08C90F3
:1010400083A225EF08F027EF08F020EF08F058EC16
:101050000BF083B22EEF08F030EF08F029EF08F024
:10106000CAEC0AF001C009F002C00AF00B6A0C6A6F
:10107000000E30EC06F009C047F00AC048F00BC083
:1010800049F00CC04AF056EC0BF0000E026E000E58
:10109000016E92EC0AF047C001F048C002F049C06E
:1010A00003F04AC004F0AE0E056E470E066E6B0EDE
:1010B000076E420E086E7EEC03F001C043F002C0E2
:1010C00044F003C045F004C046F043C001F044C002
:1010D00002F045C003F046C004F0000E056E000E9D
:1010E000066E800E076E3F0E086E1EEC01F001C00A
:1010F00043F002C044F003C045F004C046F043C0D2
:101100001AF044C01BF045C01CF046C01DF0120090
:1011100006C001F007C002F01E0E036E020E046E40
:1011200038EC09F001500210D8A499EF08F09BEFB9
:1011300008F09FEF08F03CEC0BF0F9EF08F006C068
:1011400001F007C002F02C0E036E020E046E38ECA4
:1011500009F001500210D8A4B0EF08F0B2EF08F087
:10116000B6EF08F041EC0BF0F9EF08F006C001F023
:1011700007C002F0360E036E020E046E38EC09F062
:1011800001500210D8A4C7EF08F0C9EF08F0CDEF66
:1011900008F032EC0BF0F9EF08F006C001F007C0E0
:1011A00002F0260E036E020E046E38EC09F00150B8
:1011B0000210D8A4DEEF08F0E0EF08F0E4EF08F04A
:1011C00037EC0BF0F9EF08F006C001F007C002F0B1
:1011D000310E036E020E046E38EC09F0015002105D
:1011E000D8A4F5EF08F0F7EF08F0F9EF08F02DECD0
:1011F0000BF01200086E08500F0B026E0850F00B37
:10120000036E8C8603380F0BD8EC09F08B88820EA6
:10121000056E330E046E00F00406D8A0050605BE68
:101220001AEF09F0055008E10404D8A01AEF09F0FC
:101230001CEF09F00BEF09F08B980250D8EC09F085
:101240008B88820E076E330E066E00F00606D8A05D
:10125000070607BE34EF09F0075008E10604D8A0DE
:1012600034EF09F036EF09F025EF09F08B98120002
:101270003EEF09F0014A022A034A042A01C0F6FFA0
:1012800002C0F7FF0800F5CF05F003C0F6FF04C069
:10129000F7FF0800F5500518D8A451EF09F053EFF7
:1012A00009F061EF09F001C0F6FF02C0F7FF080086
:1012B000F5500009D8A45FEF09F061EF09F03AEFAB
:1012C00009F001C0F6FF02C0F7FF0800F5CF05F0F6
:1012D00003C0F6FF04C0F7FF0800F550055C016E7F
:1012E000026AD8A002061200056E0504D8A47BEF9E
:1012F00009F07DEF09F08EEF09F004507F0F086EC2
:1013000008380F0B066E08500F0B076E0650BAEC2C
:101310000AF00750BAEC0AF0A6EF09F0020E051821
:10132000D8A495EF09F097EF09F0A6EF09F0045063
:10133000BF0F086E08380F0B066E08500F0B076EB4
:101340000650BAEC0AF00750BAEC0AF01200000E90
:10135000D8EC09F0030EBAEC0AF00D0E046EFC0E88
:10136000E82EFED7042EFCD7030EBAEC0AF01D0EB1
:10137000046E910EE82EFED7042EFCD700F0030E6B
:10138000BAEC0AF0020EBAEC0AF0020EBAEC0AF05D
:10139000080EBAEC0AF0000EBAEC0AF00C0EBAEC29
:1013A0000AF0000EBAEC0AF0060EBAEC0AF01200CF
:1013B000016E01A0DEEF09F0E0EF09F0E3EF09F0C4
:1013C000898EE4EF09F0899E01A2E9EF09F0EBEFC5
:1013D00009F0EEEF09F0898CEFEF09F0899C01A488
:1013E000F4EF09F0F6EF09F0F9EF09F08B80FAEF6E
:1013F00009F08B9001A6FFEF09F001EF0AF004EF6E
:101400000AF08B8205EF0AF08B921200000E0E6E2E
:10141000000E0D6E1CEF0AF00D5009240B6E0E50DD
:101420000A200C6E0BC0F6FF0CC0F7FF0800F55049
:10143000FAEC08F00D4A0E2A0D5009240B6E0E50DE
:101440000A200C6E0BC0F6FF0CC0F7FF0800F55029
:101450000009D8A42EEF0AF030EF0AF00CEF0AF0E2
:101460001200000E8D6E040E8C6E080E896E000E3A
:101470008A6E000E8B6E060E966E000E926EFD0E3C
:10148000936EA80E946EB60E956E380E0F013B6FDC
:101490000C0E3A6F3C0E396F060E3C6F000E386F23
:1014A000000E616EF18E1200080E706E900E716E5D
:1014B000240E726ECF0E756E000E766E000E016EEB
:1014C000000E026E14EC0BF0000E016E000E026EA8
:1014D0000FEC0BF0000E016E000E026E19EC0BF01B
:1014E000000E4B6E1200080EB86E900EAB6E240EFE
:1014F000AC6ECF0EAF6E000EB06E000E016E000E21
:10150000026E23EC0BF0000E016E000E026E1EEC5C
:101510000BF0000E016E000E026E28EC0BF0000EB8
:101520004C6E1200CDA497EF0AF099EF0AF0A1EFEC
:101530000AF0CD900250CF6E01C0CEFFCD80A5EF56
:101540000AF00250CF6E01C0CEFF12009EAAABEF90
:101550000AF0ADEF0AF0A6EF0AF0000E4C6EABA257
:10156000B4EF0AF0B6EF0AF0B8EF0AF0AB98AB8828
:10157000AE501200036E8C960350D8EC09F08B88A5
:101580000B0E026E620EE82EFED7022EFCD700D0A4
:101590008B981200CD82CECF08F0CFCF07F0075046
:1015A000036E0850056E03C006F005C001F006C0CA
:1015B00002F01200000ECC6E000ECF6E000ECE6E4A
:1015C000CECF3BF0CFCF3CF09E90130ECD6E1200ED
:1015D00000EE43F00A0EEE6AE806FDE1000EF86E3A
:1015E00000014BEF05F031EC0AF008EC0BF0DAECFF
:1015F0000AF073EC0AF054EC0AF012009EBA03EF02
:101600000BF006EF0BF0010E07EF0BF0000E1200CF
:10161000600ED36E040ED26E000E9B6E120001C0DF
:1016200037F002C038F0120001C039F002C03AF0C1
:10163000120001C035F002C036F0120001C03FF0C8
:1016400002C040F0120001C041F002C042F012009E
:1016500001C03DF002C03EF012005CEC0BF05AEC11
:101660000BF012004AEC0BF05AEC0BF012005CECA1
:101670000BF046EC0BF012004AEC0BF046EC0BF0D2
:10168000120052EC0BF04EEC0BF012008D808988AA
:10169000899A120089808984899212008D808998A4
:1016A000898A12008980899489821200CD90120063
:0C16B000CD8012008D9012008990120075
:020000040020DA
:08000000FFFFFFFFFFFFFFFF00
:020000040030CA
:0E000000FF28193CFF3F81FF03C003E00340CF
:00000001FF
