:020000040000FA
:04000000D1EF09F043
:100200000001020304050602050409060641542BF9
:1002100043495053544152543D220041542B4349C9
:100220005053454E443D0041542B43575141500DCE
:100230000A0041542B43494653520D0A0041542BA6
:1002400043574A41503D220041542B43574D4F44A0
:10025000453D006E6F206368616E67650041542BF9
:100260005253540D0A00464F5257415244004C69B4
:100270006E6B656400556E6C696E6B002B49504463
:100280002C005249474854007265616479000D0A98
:100290000D0A0041540D0A004241434B00464149BA
:1002A0004C0053544F50004C45465400220D0A0058
:1002B000222C220041544500544350005544500024
:1002C000222C004F4B00257500000450800B0D6E52
:1002D000045004240F6E03AE70EF01F072EF01F0D2
:1002E00073EF01F00F800F50D8B479EF01F07BEF7E
:1002F00001F090EF01F00F28D8A481EF01F083EF17
:1003000001F08BEF01F0000E016E000E026E000E88
:10031000036E000E046E038E000E046E98EF01F063
:10032000000E016E000E026E000E036E000E046ED3
:100330000850800B0E6E0D500E18D8B4A2EF01F0CD
:10034000A4EF01F0A5EF01F00D8C085008240E6E0B
:1003500007AEADEF01F0AFEF01F0B0EF01F00E80AE
:100360000E50D8B4B6EF01F0B8EF01F0CDEF01F0C8
:100370000E28D8A4BEEF01F0C0EF01F0C8EF01F0E5
:10038000000E056E000E066E000E076E000E086E63
:10039000078E000E086ED5EF01F0000E056E000E00
:1003A000066E000E076E000E086E0F500E5CD8B081
:1003B000DCEF01F0DEEF01F005EF02F00DACE3EF52
:1003C00001F0E5EF01F0E7EF01F0800E0D1A0FC02C
:1003D00010F00EC00FF010C00EF001C010F005C0FC
:1003E00001F010C005F002C010F006C002F010C00D
:1003F00006F003C010F007C003F010C007F004C0FF
:1004000010F008C004F010C008F0000E106E0F507D
:100410000EC009F00A6A095E000E0A5A0ABE1AEFF7
:1004200002F00A5009E11A0E095CD8A01AEF02F096
:100430001CEF02F053EF02F0015002100310041001
:10044000D8A425EF02F028EF02F0010E29EF02F008
:10045000000E106E000E016E000E026E000E036E96
:10046000000E046E0EC00FF05CEF02F010A03BEF28
:1004700002F03DEF02F043EF02F0D8901030010996
:10048000106E45EF02F0D890103201A04AEF02F052
:100490004CEF02F04DEF02F0108E043404320332C0
:1004A000023201320F2A0E500F5CD8A05AEF02F030
:1004B0005CEF02F036EF02F00DBC61EF02F063EF8B
:1004C00002F0A3EF02F00F50D8A469EF02F06BEF37
:1004D00002F075EF02F0000E016E000E026E000ECB
:1004E000036E000E046EC4EF03F0055001260650A3
:1004F0000222075003220850042204A082EF02F0D7
:1005000084EF02F030EF03F010A089EF02F08BEFE0
:1005100002F091EF02F0D89010300109106E93EFC5
:1005200002F0D890103201A098EF02F09AEF02F09A
:100530009BEF02F0108E0434043203320232013297
:100540000F2A30EF03F00550015C065002580750A7
:1005500003580450800A096E0850800A0958D8B020
:10056000B4EF02F0B6EF02F0E1EF02F00150055CEB
:10057000096E025006580A6E035007580B6E04505D
:1005800008580C6EFF0E0924016EFF0E0A20026E41
:10059000FF0E0B20036EFF0E0C20046E800E0D1A52
:1005A000106C1050D8A4D7EF02F0D9EF02F0E9EFA9
:1005B00002F0010E0126000E022203220422E9EFBE
:1005C00002F00550015E0650025A0750035A0850C7
:1005D000045A0150021003100410D8A4F2EF02F0E4
:1005E000F4EF02F029EF03F01050D8A4FAEF02F074
:1005F000FCEF02F029EF03F0000E016E000E026E18
:10060000000E036E000E046EC4EF03F0D8900136A6
:1006100002360336043610AE10EF03F012EF03F08B
:1006200013EF03F0018010A018EF03F01AEF03F0AE
:100630001EEF03F0D880103620EF03F0D89010366C
:100640000F50D8B426EF03F028EF03F029EF03F0A2
:100650000F0603AE2EEF03F030EF03F006EF03F0CA
:10066000000E0E6E10AE37EF03F039EF03F051EFCE
:1006700003F010C009F07F0E0916D8B442EF03F062
:1006800044EF03F048EF03F0010E0E6E51EF03F05C
:1006900001A04DEF03F04FEF03F051EF03F044EFF3
:1006A00003F00E50D8B457EF03F059EF03F084EF86
:1006B00003F0010E0126000E02220322042204A0F0
:1006C00064EF03F066EF03F084EF03F001C009F07C
:1006D00002C00AF003C00BF004C00CF00C340C3262
:1006E0000B320A32093209C001F00AC002F00BC015
:1006F00003F00CC004F00F28D8B481EF03F083EFAF
:1007000003F084EF03F00F2A0F28D8B48AEF03F028
:100710008CEF03F094EF03F00F50D8A492EF03F0A6
:1007200094EF03F0A6EF03F0000E016E000E026ED0
:10073000000E036E000E046E0F50D8A4A2EF03F05B
:10074000A4EF03F0A6EF03F0000E0D6E0FA0ABEFC9
:1007500003F0ADEF03F0B0EF03F0038EB1EF03F061
:10076000039ED8900F30046E0DAEB9EF03F0BBEFCF
:1007700003F0BCEF03F0048E01C001F002C002F0F0
:1007800003C003F004C004F012000450800B116E8B
:1007900004500424186E03AED0EF03F0D2EF03F040
:1007A000D3EF03F018801850D8B4D9EF03F0DBEF83
:1007B00003F0F0EF03F01828D8A4E1EF03F0E3EF23
:1007C00003F0EBEF03F0000E016E000E026E000E60
:1007D000036E000E046E038E000E046EF8EF03F03D
:1007E000000E016E000E026E000E036E000E046E0F
:1007F0000850800B111A08500824196E07AE03EF39
:1008000004F005EF04F006EF04F019801950D8B495
:100810000CEF04F00EEF04F023EF04F01928D8A435
:1008200014EF04F016EF04F01EEF04F0000E056E56
:10083000000E066E000E076E000E086E078E000E8C
:10084000086E2BEF04F0000E056E000E066E000E13
:10085000076E000E086E0550061007100810D8A489
:1008600034EF04F036EF04F04EEF04F0000E016EAA
:10087000000E026E000E036E000E046E800E031258
:100880007F0E04121150041201C001F002C002F0E8
:1008900003C003F004C004F091EF05F01850D8A491
:1008A00054EF04F056EF04F060EF04F0000E016E18
:1008B000000E026E000E036E000E046E91EF05F046
:1008C000195018C009F00A6A095E000E0A5A7F0E14
:1008D0000924126E000E0A20136E01C00DF002C032
:1008E0000EF003C00FF004C010F0000E016E000EF9
:1008F000026E000E036E000E046E000E146E000EEB
:10090000156E000E166E000E176E000E196EC1EFFA
:1009100004F01950D8B48FEF04F091EF04F0A8EF71
:1009200004F0D8900D360E360F361036D8900136BA
:1009300002360336043617AEA0EF04F0A2EF04F03F
:10094000A3EF04F00180D89014361536163617360A
:1009500005500D5C06500E5807500F58085010589F
:10096000D8A0B5EF04F0B7EF04F0C0EF04F0178C97
:1009700005500D5E06500E5A07500F5A0850105A77
:10098000192A190E1964C7EF04F0C9EF04F089EFB2
:1009900004F00D500E100F101010D8B4D2EF04F068
:1009A000D4EF04F0ECEF04F01480ECEF04F0D890F6
:1009B000013602360336043617AEE1EF04F0E3EFFA
:1009C00004F0E4EF04F00180D890143615361636A2
:1009D00017361206D8A0130603AEF1EF04F0F3EFBA
:1009E00004F0D7EF04F0000E196E17AEFAEF04F022
:1009F000FCEF04F020EF05F0FF0E1414096EFF0E5B
:100A000015140A6EFF0E16140B6E7F0E17140C6E63
:100A100009500A100B100C10D8B411EF05F013EFA9
:100A200005F017EF05F0010E196E20EF05F001A09B
:100A30001CEF05F01EEF05F020EF05F013EF05F0B9
:100A40001950D8B426EF05F028EF05F04CEF05F06B
:100A5000010E0126000E02220322042204A033EF1D
:100A600005F035EF05F04CEF05F001C009F002C0CC
:100A70000AF003C00BF004C00CF00C340C320B3243
:100A80000A32093209C001F00AC002F00BC003F0BB
:100A90000CC004F0124A132A13BE57EF05F013508E
:100AA00008E11228D8A057EF05F059EF05F064EFE0
:100AB00005F0000E136E1268000E016E000E026E3D
:100AC000000E036E000E046E13BE71EF05F013509E
:100AD00006E11204D8B06FEF05F071EF05F07FEF7B
:100AE00005F0000E136E000E126E000E016E000E69
:100AF000026E000E036E000E046E000E116E12C028
:100B000018F018A086EF05F088EF05F08BEF05F0E0
:100B1000038E8CEF05F0039ED8901830046E42EFE0
:100B200004F01200116E1150D8B499EF05F09BEF4C
:100B300005F0BDEF05F00CBEA2EF05F0A0EF05F04B
:100B4000BDEF05F009C00DF00AC00EF00BC00FF0AC
:100B50000CC010F00D1E0E1E0F1E101E0D2A000ED2
:100B60000E220F2210220DC013F00EC014F00FC081
:100B700015F010C016F0C5EF05F009C013F00AC05B
:100B800014F00BC015F00CC016F009500A100B1031
:100B90000C10D8A4CEEF05F0D0EF05F0DAEF05F099
:100BA000000E096E000E0A6E000E0B6E000E0C6E2B
:100BB0006BEF06F0960E126EE4EF05F0122AD89055
:100BC0001632153214321332000E13140D6E000E4D
:100BD00014140E6E000E15140F6EFE0E1614106E09
:100BE0000D500E100F101010D8A4F9EF05F0FBEF08
:100BF00005F0DEEF05F009EF06F0122A010E1326CC
:100C0000000E142215221622D890163215321432F4
:100C10001332000E13140D6E000E14140E6E000E1F
:100C200015140F6EFF0E1614106E0D500E100F10CF
:100C30001010D8A41EEF06F020EF06F0FDEF05F02F
:100C400028EF06F01206D8901336143615361636ED
:100C500015BE2DEF06F02FEF06F037EF06F0020E6F
:100C6000126035EF06F037EF06F022EF06F012B013
:100C70003CEF06F03EEF06F03FEF06F0159ED890F1
:100C8000123212C00DF00E6A0F6A106A0DC010F019
:100C90000F6A0E6A0D6A0D5013120E5014120F5087
:100CA0001512105016121150D8B459EF06F05BEF20
:100CB00006F063EF06F00CBE62EF06F060EF06F0A0
:100CC00063EF06F0168E13C009F014C00AF015C0C9
:100CD0000BF016C00CF0120032EC0AF03DEC0AF0FA
:100CE0000009D8B476EF06F078EF06F0DEEF06F0F4
:100CF00000EC0AF0346E460E3418D8A482EF06F0E9
:100D000084EF06F098EF06F0660E066E020E076E90
:100D1000C2EC08F0020E2B6E040E2A6EBA0EE82EFC
:100D2000FED72A2EFCD72B2EFAD700D0F1EF06F0F3
:100D3000420E3418D8A49FEF06F0A1EF06F0A9EFF9
:100D400006F0980E066E020E076EC2EC08F08AEFEF
:100D500006F04C0E3418D8A4B0EF06F0B2EF06F04F
:100D6000BAEF06F0A70E066E020E076EC2EC08F090
:100D70008AEF06F0520E3418D8A4C1EF06F0C3EF84
:100D800006F0CBEF06F0820E066E020E076EC2EC86
:100D900008F08AEF06F0530E3418D8A4D2EF06F00C
:100DA000D4EF06F0DCEF06F0A20E066E020E076E20
:100DB000C2EC08F08AEF06F0F1EF06F0A20E066E24
:100DC000020E076EC2EC08F0F1EF06F0A20E066EFE
:100DD000020E076EC2EC08F08C84060EE82EFED7D9
:100DE00000D0000E1E6E000E1F6E400E206E410ED3
:100DF000216E44EC08F01AC022F01BC023F01CC086
:100E000024F01DC025F044EC07F0D8B00AEF07F03D
:100E10000CEF07F0E6EF06F019EF07F0A20E066EF2
:100E2000020E076EC2EC08F08C84060EE82EFED788
:100E300000D0000E1E6E000E1F6E400E206E410E82
:100E4000216EC6EC07F01AC022F01BC023F01CC0B4
:100E500024F01DC025F044EC07F0D8B032EF07F0C5
:100E600034EF07F00EEF07F0060E2B6E130E2A6E0E
:100E7000AE0EE82EFED72A2EFCD72B2EFAD78C9456
:100E80006EEF06F000EF00F0000E1E14266E000E4E
:100E90001F14276E800E2014286E7F0E2114296ED9
:100EA0002650271028102910D8A459EF07F05BEF1F
:100EB00007F063EF07F0000E1E6E000E1F6E000EAF
:100EC000206E000E216E000E2214266E000E2314DA
:100ED000276E800E2414286E7F0E2514296E26504E
:100EE000271028102910D8A478EF07F07AEF07F020
:100EF00082EF07F0000E226E000E236E000E246EAD
:100F0000000E256E21AE87EF07F089EF07F092EF14
:100F100007F01E6C1F1ED8B01F2A201ED8B0202A32
:100F2000800E215625AE97EF07F099EF07F0A2EF5C
:100F300007F0226C231ED8B0232A241ED8B0242AFE
:100F4000800E2556000E1E1A000E1F1A000E201AC3
:100F5000800E211A000E221A000E231A000E241AE7
:100F6000800E251A22501E5C23501F5824502058F2
:100F700025502158D8B0BFEF07F0C1EF07F0C4EFFC
:100F800007F0D890C5EF07F0D8801200000E466E2B
:100F9000000E476E000E486E000E496E000E4A6E3F
:100FA000000E4B6E000E4C6E000E4D6E8A82060EC9
:100FB000E82EFED700D08A9281A0E1EF07F0E3EFA0
:100FC00007F0DCEF07F09DEC0AF081B0EAEF07F0E4
:100FD000ECEF07F0E5EF07F014EC0AF001C009F0C0
:100FE00002C00AF00B6A0C6A000E92EC05F009C010
:100FF0004AF00AC04BF00BC04CF00CC04DF09BEC1B
:101000000AF0000E026E000E016EECEC09F04AC010
:1010100001F04BC002F04CC003F04DC004F0AE0E26
:10102000056E470E066E6B0E076E420E086EC5EC1F
:1010300003F001C046F002C047F003C048F004C00E
:1010400049F046C001F047C002F048C003F049C073
:1010500004F0000E056E000E066E800E076E3F0E49
:10106000086E65EC01F001C046F002C047F003C015
:1010700048F004C049F046C01AF047C01BF048C011
:101080001CF049C01DF01200000E466E000E476EA7
:10109000000E486E000E496E000E4A6E000E4B6E3A
:1010A000000E4C6E000E4D6E8C80060EE82EFED7A4
:1010B00000D08C9083A25FEF08F061EF08F05AEF48
:1010C00008F09DEC0AF083B268EF08F06AEF08F0D0
:1010D00063EF08F014EC0AF001C009F002C00AF056
:1010E0000B6A0C6A000E92EC05F009C04AF00AC0C7
:1010F0004BF00BC04CF00CC04DF09BEC0AF0000E16
:10110000026E000E016EECEC09F04AC001F04BC01B
:1011100002F04CC003F04DC004F0AE0E056E470E59
:10112000066E6B0E076E420E086EC5EC03F001C032
:1011300046F002C047F003C048F004C049F046C082
:1011400001F047C002F048C003F049C004F0000EAF
:10115000056E000E066E800E076E3F0E086E65EC83
:1011600001F001C046F002C047F003C048F004C0DF
:1011700049F046C01AF047C01BF048C01CF049C0F7
:101180001DF0120006C001F007C002F0660E036EEB
:10119000020E046E34EC09F001500210D8A4D3EF13
:1011A00008F0D5EF08F0D9EF08F081EC0AF033EF42
:1011B00009F006C001F007C002F0980E036E020E9F
:1011C000046E34EC09F001500210D8A4EAEF08F0E4
:1011D000ECEF08F0F0EF08F086EC0AF033EF09F0DE
:1011E00006C001F007C002F0A70E036E020E046EE7
:1011F00034EC09F001500210D8A401EF09F003EF1C
:1012000009F007EF09F077EC0AF033EF09F006C0B8
:1012100001F007C002F0820E036E020E046E34EC81
:1012200009F001500210D8A418EF09F01AEF09F0E4
:101230001EEF09F07CEC0AF033EF09F006C001F074
:1012400007C002F0A20E036E020E046E34EC09F029
:1012500001500210D8A42FEF09F031EF09F033EF5D
:1012600009F072EC0AF012003AEF09F0014A022A82
:10127000034A042A01C0F6FF02C0F7FF0800F5CFB9
:1012800005F003C0F6FF04C0F7FF0800F55005188D
:10129000D8A44DEF09F04FEF09F05DEF09F001C060
:1012A000F6FF02C0F7FF0800F5500009D8A45BEF75
:1012B00009F05DEF09F036EF09F001C0F6FF02C05A
:1012C000F7FF0800F5CF05F003C0F6FF04C0F7FFF5
:1012D0000800F550055C016E026AD8A002061200F3
:1012E000000E8D6E040E8C6E080E896E000E8A6ED6
:1012F000020E8B6E060E966EC00E926EFD0E936EF3
:10130000BF0E946EBA0E956E380E0F013B6F3C0EF9
:101310003A6F3C0E396F060E3C6F000E386F000EB0
:10132000616EF18E1200080E706E900E716E240EBA
:10133000726ECF0E756E000E766E000E016E000E90
:10134000026E59EC0AF0000E016E000E026E54ECB3
:101350000AF0000E016E000E026E5EEC0AF0000E46
:101360004E6E1200080EB86E900EAB6E240EAC6E70
:10137000CF0EAF6E000EB06E000E016E000E026E4C
:1013800068EC0AF0000E016E000E026E63EC0AF0CB
:10139000000E016E000E026E6DEC0AF0000E4F6E34
:1013A00012009C0EF66E140EF76E000EF86E00EE34
:1013B00050F010EE0CF00900F5CFEEFFE550E150D3
:1013C000FAE100EE35F01B0EEE6AE806FDE1000ED4
:1013D000F86E00016CEF06F0CDA4F1EF09F0F3EF29
:1013E00009F0FBEF09F0CD900250CF6E01C0CEFFA7
:1013F000CD80FFEF09F00250CF6E01C0CEFF12008A
:101400009EAA05EF0AF007EF0AF000EF0AF0000EBF
:101410004F6EABA20EEF0AF010EF0AF012EF0AF0D7
:10142000AB98AB88AE501200CD82CECF08F0CFCFB4
:1014300007F00750036E0850056E03C006F005C0A4
:1014400001F006C002F01200000ECC6E000ECF6E4E
:10145000000ECE6ECECF5CF0CFCF5DF09E90130E1F
:10146000CD6E120070EC09F047EC0AF024EC0AF0A3
:10147000B2EC09F093EC09F012009EBA42EF0AF0C8
:1014800045EF0AF0010E46EF0AF0000E1200600E62
:10149000D36E040ED26E000E9B6E1200C302880241
:1014A0009D0253026E02750201C062F002C063F039
:1014B000120001C064F002C065F0120001C060F0CB
:1014C00002C061F0120001C068F002C069F01200B1
:1014D00001C05EF002C05FF0120001C066F002C001
:1014E00067F01200A1EC0AF09FEC0AF012008FECFA
:1014F0000AF09FEC0AF01200A1EC0AF08BEC0AF063
:1015000012008FEC0AF08BEC0AF0120097EC0AF054
:1015100093EC0AF012008D808988899A12008980E4
:101520008984899212008D808998898A1200898025
:10153000899489821200CD901200CD8012008D9086
:0615400012008990120068
:020000040020DA
:08000000FFFFFFFFFFFFFFFF00
:020000040030CA
:0E000000FF28193CFF3F81FF03C003E00340CF
:00000001FF
