:020000040000FA
:0400000077EF08F09E
:1002000000464F5257415244005249474854004219
:0F02100041434B0053544F50004C45465400009F
:100220000450800B0D6E045004240F6E03AE1BEFC0
:1002300001F01DEF01F01EEF01F00F800F50D8B458
:1002400024EF01F026EF01F03BEF01F00F28D8A4D6
:100250002CEF01F02EEF01F036EF01F0000E016EF1
:10026000000E026E000E036E000E046E038E000E72
:10027000046E43EF01F0000E016E000E026E000EE0
:10028000036E000E046E0850800B0E6E0D500E189B
:10029000D8B44DEF01F04FEF01F050EF01F00D8CAD
:1002A000085008240E6E07AE58EF01F05AEF01F027
:1002B0005BEF01F00E800E50D8B461EF01F063EFF8
:1002C00001F078EF01F00E28D8A469EF01F06BEF90
:1002D00001F073EF01F0000E056E000E066E000EC9
:1002E000076E000E086E078E000E086E80EF01F09C
:1002F000000E056E000E066E000E076E000E086EF4
:100300000F500E5CD8B087EF01F089EF01F0B0EF2D
:1003100001F00DAC8EEF01F090EF01F092EF01F0E3
:10032000800E0D1A0FC010F00EC00FF010C00EF0AE
:1003300001C010F005C001F010C005F002C010F0BF
:1003400006C002F010C006F003C010F007C003F0B2
:1003500010C007F004C010F008C004F010C008F08E
:10036000000E106E0F500EC009F00A6A095E000EF2
:100370000A5A0ABEC5EF01F00A5009E11A0E095CDB
:10038000D8A0C5EF01F0C7EF01F0FEEF01F001507A
:10039000021003100410D8A4D0EF01F0D3EF01F045
:1003A000010ED4EF01F0000E106E000E016E000E73
:1003B000026E000E036E000E046E0EC00FF007EF0B
:1003C00002F010A0E6EF01F0E8EF01F0EEEF01F02F
:1003D000D89010300109106EF0EF01F0D890103273
:1003E00001A0F5EF01F0F7EF01F0F8EF01F0108E4A
:1003F000043404320332023201320F2A0E500F5CF1
:10040000D8A005EF02F007EF02F0E1EF01F00DBC1C
:100410000CEF02F00EEF02F04EEF02F00F50D8A4F6
:1004200014EF02F016EF02F020EF02F0000E016E62
:10043000000E026E000E036E000E046E6FEF03F0EE
:1004400005500126065002220750032208500422BC
:1004500004A02DEF02F02FEF02F0DBEF02F010A06E
:1004600034EF02F036EF02F03CEF02F0D89010309B
:100470000109106E3EEF02F0D890103201A043EF58
:1004800002F045EF02F046EF02F0108E0434043221
:100490000332023201320F2ADBEF02F00550015C19
:1004A00006500258075003580450800A096E08503D
:1004B000800A0958D8B05FEF02F061EF02F08CEFCC
:1004C00002F00150055C096E025006580A6E035096
:1004D00007580B6E045008580C6EFF0E0924016E6D
:1004E000FF0E0A20026EFF0E0B20036EFF0E0C2083
:1004F000046E800E0D1A106C1050D8A482EF02F01A
:1005000084EF02F094EF02F0010E0126000E0222A9
:100510000322042294EF02F00550015E0650025AB5
:100520000750035A0850045A0150021003100410D7
:10053000D8A49DEF02F09FEF02F0D4EF02F010502C
:10054000D8A4A5EF02F0A7EF02F0D4EF02F0000E5E
:10055000016E000E026E000E036E000E046E6FEF51
:1005600003F0D890013602360336043610AEBBEFE6
:1005700002F0BDEF02F0BEEF02F0018010A0C3EF69
:1005800002F0C5EF02F0C9EF02F0D8801036CBEFD1
:1005900002F0D89010360F50D8B4D1EF02F0D3EF5C
:1005A00002F0D4EF02F00F0603AED9EF02F0DBEF5A
:1005B00002F0B1EF02F0000E0E6E10AEE2EF02F0AC
:1005C000E4EF02F0FCEF02F010C009F07F0E091614
:1005D000D8B4EDEF02F0EFEF02F0F3EF02F0010E0E
:1005E0000E6EFCEF02F001A0F8EF02F0FAEF02F05D
:1005F000FCEF02F0EFEF02F00E50D8B402EF03F080
:1006000004EF03F02FEF03F0010E0126000E02228B
:100610000322042204A00FEF03F011EF03F02FEFE9
:1006200003F001C009F002C00AF003C00BF004C0DF
:100630000CF00C340C320B320A32093209C001F0D2
:100640000AC002F00BC003F00CC004F00F28D8B4AD
:100650002CEF03F02EEF03F02FEF03F00F2A0F28FB
:10066000D8B435EF03F037EF03F03FEF03F00F504E
:10067000D8A43DEF03F03FEF03F051EF03F0000E7D
:10068000016E000E026E000E036E000E046E0F501F
:10069000D8A44DEF03F04FEF03F051EF03F0000E3D
:1006A0000D6E0FA056EF03F058EF03F05BEF03F071
:1006B000038E5CEF03F0039ED8900F30046E0DAEF6
:1006C00064EF03F066EF03F067EF03F0048E01C000
:1006D00001F002C002F003C003F004C004F01200F5
:1006E0000450800B116E04500424186E03AE7BEF8F
:1006F00003F07DEF03F07EEF03F018801850D8B4BC
:1007000084EF03F086EF03F09BEF03F01828D8A4E2
:100710008CEF03F08EEF03F096EF03F0000E016E06
:10072000000E026E000E036E000E046E038E000EAD
:10073000046EA3EF03F0000E016E000E026E000EB9
:10074000036E000E046E0850800B111A0850082426
:10075000196E07AEAEEF03F0B0EF03F0B1EF03F0A8
:1007600019801950D8B4B7EF03F0B9EF03F0CEEF0A
:1007700003F01928D8A4BFEF03F0C1EF03F0C9EFCD
:1007800003F0000E056E000E066E000E076E000EE2
:10079000086E078E000E086ED6EF03F0000E056E91
:1007A000000E066E000E076E000E086E0550061055
:1007B00007100810D8A4DFEF03F0E1EF03F0F9EF22
:1007C00003F0000E016E000E026E000E036E000EAE
:1007D000046E800E03127F0E04121150041201C029
:1007E00001F002C002F003C003F004C004F03CEFCB
:1007F00005F01850D8A4FFEF03F001EF04F00BEF61
:1008000004F0000E016E000E026E000E036E000E6C
:10081000046E3CEF05F0195018C009F00A6A095E31
:10082000000E0A5A7F0E0924126E000E0A20136E63
:1008300001C00DF002C00EF003C00FF004C010F0B4
:10084000000E016E000E026E000E036E000E046EAE
:10085000000E146E000E156E000E166E000E176E52
:10086000000E196E6CEF04F01950D8B43AEF04F092
:100870003CEF04F053EF04F0D8900D360E360F36EF
:100880001036D890013602360336043617AE4BEFD9
:1008900004F04DEF04F04EEF04F00180D8901436D0
:1008A00015361636173605500D5C06500E58075093
:1008B0000F5808501058D8A060EF04F062EF04F011
:1008C0006BEF04F0178C05500D5E06500E5A075062
:1008D0000F5A0850105A192A190E196472EF04F0B1
:1008E00074EF04F034EF04F00D500E100F101010E0
:1008F000D8B47DEF04F07FEF04F097EF04F014809C
:1009000097EF04F0D890013602360336043617AE5E
:100910008CEF04F08EEF04F08FEF04F00180D8909C
:1009200014361536163617361206D8A0130603AE3F
:100930009CEF04F09EEF04F082EF04F0000E196EBD
:1009400017AEA5EF04F0A7EF04F0CBEF04F0FF0E15
:100950001414096EFF0E15140A6EFF0E16140B6E9A
:100960007F0E17140C6E09500A100B100C10D8B41F
:10097000BCEF04F0BEEF04F0C2EF04F0010E196EFC
:10098000CBEF04F001A0C7EF04F0C9EF04F0CBEF08
:1009900004F0BEEF04F01950D8B4D1EF04F0D3EF57
:1009A00004F0F7EF04F0010E0126000E02220322EC
:1009B000042204A0DEEF04F0E0EF04F0F7EF04F00F
:1009C00001C009F002C00AF003C00BF004C00CF033
:1009D0000C340C320B320A32093209C001F00AC061
:1009E00002F00BC003F00CC004F0124A132A13BE2D
:1009F00002EF05F0135008E11228D8A002EF05F02D
:100A000004EF05F00FEF05F0000E136E1268000EF4
:100A1000016E000E026E000E036E000E046E13BE19
:100A20001CEF05F0135006E11204D8B01AEF05F0E0
:100A30001CEF05F02AEF05F0000E136E000E126E8B
:100A4000000E016E000E026E000E036E000E046EAC
:100A5000000E116E12C018F018A031EF05F033EF40
:100A600005F036EF05F0038E37EF05F0039ED890C2
:100A70001830046EEDEF03F01200116E1150D8B46F
:100A800044EF05F046EF05F068EF05F00CBE4DEFC2
:100A900005F04BEF05F068EF05F009C00DF00AC056
:100AA0000EF00BC00FF00CC010F00D1E0E1E0F1E2E
:100AB000101E0D2A000E0E220F2210220DC013F060
:100AC0000EC014F00FC015F010C016F070EF05F056
:100AD00009C013F00AC014F00BC015F00CC016F0DA
:100AE00009500A100B100C10D8A479EF05F07BEF19
:100AF00005F085EF05F0000E096E000E0A6E000E7F
:100B00000B6E000E0C6E16EF06F0960E126E8FEF47
:100B100005F0122AD8901632153214321332000E14
:100B200013140D6E000E14140E6E000E15140F6EBD
:100B3000FE0E1614106E0D500E100F101010D8A4CB
:100B4000A4EF05F0A6EF05F089EF05F0B4EF05F08E
:100B5000122A010E1326000E142215221622D890F6
:100B60001632153214321332000E13140D6E000EAD
:100B700014140E6E000E15140F6EFF0E1614106E68
:100B80000D500E100F101010D8A4C9EF05F0CBEFC8
:100B900005F0A8EF05F0D3EF05F01206D890133654
:100BA00014361536163615BED8EF05F0DAEF05F017
:100BB000E2EF05F0020E1260E0EF05F0E2EF05F063
:100BC000CDEF05F012B0E7EF05F0E9EF05F0EAEF41
:100BD00005F0159ED890123212C00DF00E6A0F6A01
:100BE000106A0DC010F00F6A0E6A0D6A0D501312D4
:100BF0000E5014120F501512105016121150D8B476
:100C000004EF06F006EF06F00EEF06F00CBE0DEF57
:100C100006F00BEF06F00EEF06F0168E13C009F08B
:100C200014C00AF015C00BF016C00CF01200000E34
:100C30000114096E000E02140A6E800E03140B6E6E
:100C40007F0E04140C6E09500A100B100C10D8A45F
:100C50002CEF06F02EEF06F036EF06F0000E016ED8
:100C6000000E026E000E036E000E046E000E0514E0
:100C7000096E000E06140A6E800E07140B6E7F0EAE
:100C800008140C6E09500A100B100C10D8A44BEF6E
:100C900006F04DEF06F055EF06F0000E056E000E63
:100CA000066E000E076E000E086E04AE5AEF06F0D8
:100CB0005CEF06F065EF06F0016C021ED8B0022A68
:100CC000031ED8B0032A800E045608AE6AEF06F061
:100CD0006CEF06F075EF06F0056C061ED8B0062A1C
:100CE000071ED8B0072A800E0856000E011A000E03
:100CF000021A000E031A800E041A000E051A000EC6
:100D0000061A000E071A800E081A0550015C0650DC
:100D100002580750035808500458D8B092EF06F014
:100D200094EF06F097EF06F0D89098EF06F0D88091
:100D3000120006C001F007C002F0010E036E020EA1
:100D4000046EC8EC07F001500210D8A4AAEF06F018
:100D5000ACEF06F0B0EF06F0B0EC08F00AEF07F0E9
:100D600006C001F007C002F00F0E036E020E046E03
:100D7000C8EC07F001500210D8A4C1EF06F0C3EF91
:100D800006F0C7EF06F0B5EC08F00AEF07F006C072
:100D900001F007C002F0190E036E020E046EC8ECDB
:100DA00007F001500210D8A4D8EF06F0DAEF06F0F1
:100DB000DEEF06F0A6EC08F00AEF07F006C001F03F
:100DC00007C002F0090E036E020E046EC8EC07F0B5
:100DD00001500210D8A4EFEF06F0F1EF06F0F5EFA6
:100DE00006F0ABEC08F00AEF07F006C001F007C010
:100DF00002F0140E036E020E046EC8EC07F00150F0
:100E00000210D8A406EF07F008EF07F00AEF07F08A
:100E1000A1EC08F012008C80060EE82EFED700D060
:100E20008C9083A216EF07F018EF07F011EF07F090
:100E3000CCEC08F083B21FEF07F021EF07F01AEFB8
:100E400007F059EC08F001C009F002C00AF00B6A83
:100E50000C6A000E3DEC05F009C02BF00AC02CF026
:100E60000BC02DF00CC02EF0CAEC08F0000E026E84
:100E7000000E016E45EC08F02BC001F02CC002F012
:100E80002DC003F02EC004F0AE0E056E470E066EA8
:100E90006B0E076E420E086E70EC03F001C027F077
:100EA00002C028F003C029F004C02AF027C001F0D6
:100EB00028C002F029C003F02AC004F0000E056E1D
:100EC000000E066E800E076E3F0E086E10EC01F0ED
:100ED00001C027F002C028F003C029F004C02AF0A6
:100EE00027C01AF028C01BF029C01CF02AC01DF032
:100EF000120082EC08F01A0E1E6EF80EE82EFED7D5
:100F00001E2EFCD700D00BEC07F01AC023F01BC03C
:100F100024F01CC025F01DC026F023C001F024C021
:100F200002F025C003F026C004F0000E056E000E8E
:100F3000066E000E076E410E086E17EC06F0D8A084
:100F4000A4EF07F0A6EF07F0B6EF07F0010E066E6C
:100F5000020E076E99EC06F01A0E1E6EF80EE82EC1
:100F6000FED71E2EFCD700D0BCEF07F0140E066E85
:100F7000020E076E99EC06F01A0E1E6EF80EE82EA1
:100F8000FED71E2EFCD700D07BEF07F000EF00F05D
:100F9000CEEF07F0014A022A034A042A01C0F6FFF5
:100FA00002C0F7FF0800F5CF05F003C0F6FF04C04C
:100FB000F7FF0800F5500518D8A4E1EF07F0E3EFBC
:100FC00007F0F1EF07F001C0F6FF02C0F7FF0800DD
:100FD000F5500009D8A4EFEF07F0F1EF07F0CAEFE2
:100FE00007F001C0F6FF02C0F7FF0800F5CF05F0DB
:100FF00003C0F6FF04C0F7FF0800F550055C016E62
:10100000026AD8A002061200000E8D6E000E8C6ED1
:10101000080E896E000E8A6E000E8B6E060E966E9E
:10102000C00E926E9368BE0E946EFE0E956EFC0E10
:101030000F013B6F3C0E3A6F3F0E396F060E3C6F4F
:10104000000E386F000E616EF18E1200080EB86E41
:10105000900EAB6E240EAC6ECF0EAF6E000EB06E67
:10106000000E016E000E026E97EC08F0000E016E8D
:10107000000E026E92EC08F0000E016E000E026E81
:101080009CEC08F0000E2F6E1200CDA44AEF08F081
:101090004CEF08F054EF08F0CD900250CF6E01C035
:1010A000CEFFCD8058EF08F00250CF6E01C0CEFFCA
:1010B0001200CD82CECF08F0CFCF07F00750036EDD
:1010C0000850056E03C006F005C001F006C002F02E
:1010D0001200000ECC6E000ECF6E000ECE6ECECF84
:1010E00030F0CFCF31F09E90130ECD6E120000EE97
:1010F00027F0090EEE6AE806FDE1000EF86E000129
:1011000079EF07F004EC08F08BEC08F069EC08F0DC
:1011100026EC08F01200600ED36E040ED26E000EA4
:101120009B6E120001C034F002C035F0120001C005
:1011300036F002C037F0120001C032F002C033F0C6
:101140001200D0EC08F0CEEC08F01200BEEC08F073
:10115000CEEC08F01200D0EC08F0BAEC08F0120067
:10116000BEEC08F0BAEC08F01200C6EC08F0C2ECD5
:1011700008F012008D808988899A120089808984FC
:10118000899212008D808998898A120089808994B9
:1011900089821200CD901200CD8012008D90120035
:0411A0008990120020
:020000040020DA
:08000000FFFFFFFFFFFFFFFF00
:020000040030CA
:0E000000FF28193CFF3F81FF03C003E00340CF
:00000001FF
