:020000040000FA
:04000000B7EF09F05D
:1002000000464F5257415244005249474854004219
:0F02100041434B0053544F50004C45465400009F
:100220000450800B0D6E045004240F6E03AE1BEFC0
:1002300001F01DEF01F01EEF01F00F800F50D8B458
:1002400024EF01F026EF01F03BEF01F00F28D8A4D6
:100250002CEF01F02EEF01F036EF01F0000E016EF1
:10026000000E026E000E036E000E046E038E000E72
:10027000046E43EF01F0000E016E000E026E000EE0
:10028000036E000E046E0850800B0E6E0D500E189B
:10029000D8B44DEF01F04FEF01F050EF01F00D8CAD
:1002A000085008240E6E07AE58EF01F05AEF01F027
:1002B0005BEF01F00E800E50D8B461EF01F063EFF8
:1002C00001F078EF01F00E28D8A469EF01F06BEF90
:1002D00001F073EF01F0000E056E000E066E000EC9
:1002E000076E000E086E078E000E086E80EF01F09C
:1002F000000E056E000E066E000E076E000E086EF4
:100300000F500E5CD8B087EF01F089EF01F0B0EF2D
:1003100001F00DAC8EEF01F090EF01F092EF01F0E3
:10032000800E0D1A0FC010F00EC00FF010C00EF0AE
:1003300001C010F005C001F010C005F002C010F0BF
:1003400006C002F010C006F003C010F007C003F0B2
:1003500010C007F004C010F008C004F010C008F08E
:10036000000E106E0F500EC009F00A6A095E000EF2
:100370000A5A0ABEC5EF01F00A5009E11A0E095CDB
:10038000D8A0C5EF01F0C7EF01F0FEEF01F001507A
:10039000021003100410D8A4D0EF01F0D3EF01F045
:1003A000010ED4EF01F0000E106E000E016E000E73
:1003B000026E000E036E000E046E0EC00FF007EF0B
:1003C00002F010A0E6EF01F0E8EF01F0EEEF01F02F
:1003D000D89010300109106EF0EF01F0D890103273
:1003E00001A0F5EF01F0F7EF01F0F8EF01F0108E4A
:1003F000043404320332023201320F2A0E500F5CF1
:10040000D8A005EF02F007EF02F0E1EF01F00DBC1C
:100410000CEF02F00EEF02F04EEF02F00F50D8A4F6
:1004200014EF02F016EF02F020EF02F0000E016E62
:10043000000E026E000E036E000E046E6FEF03F0EE
:1004400005500126065002220750032208500422BC
:1004500004A02DEF02F02FEF02F0DBEF02F010A06E
:1004600034EF02F036EF02F03CEF02F0D89010309B
:100470000109106E3EEF02F0D890103201A043EF58
:1004800002F045EF02F046EF02F0108E0434043221
:100490000332023201320F2ADBEF02F00550015C19
:1004A00006500258075003580450800A096E08503D
:1004B000800A0958D8B05FEF02F061EF02F08CEFCC
:1004C00002F00150055C096E025006580A6E035096
:1004D00007580B6E045008580C6EFF0E0924016E6D
:1004E000FF0E0A20026EFF0E0B20036EFF0E0C2083
:1004F000046E800E0D1A106C1050D8A482EF02F01A
:1005000084EF02F094EF02F0010E0126000E0222A9
:100510000322042294EF02F00550015E0650025AB5
:100520000750035A0850045A0150021003100410D7
:10053000D8A49DEF02F09FEF02F0D4EF02F010502C
:10054000D8A4A5EF02F0A7EF02F0D4EF02F0000E5E
:10055000016E000E026E000E036E000E046E6FEF51
:1005600003F0D890013602360336043610AEBBEFE6
:1005700002F0BDEF02F0BEEF02F0018010A0C3EF69
:1005800002F0C5EF02F0C9EF02F0D8801036CBEFD1
:1005900002F0D89010360F50D8B4D1EF02F0D3EF5C
:1005A00002F0D4EF02F00F0603AED9EF02F0DBEF5A
:1005B00002F0B1EF02F0000E0E6E10AEE2EF02F0AC
:1005C000E4EF02F0FCEF02F010C009F07F0E091614
:1005D000D8B4EDEF02F0EFEF02F0F3EF02F0010E0E
:1005E0000E6EFCEF02F001A0F8EF02F0FAEF02F05D
:1005F000FCEF02F0EFEF02F00E50D8B402EF03F080
:1006000004EF03F02FEF03F0010E0126000E02228B
:100610000322042204A00FEF03F011EF03F02FEFE9
:1006200003F001C009F002C00AF003C00BF004C0DF
:100630000CF00C340C320B320A32093209C001F0D2
:100640000AC002F00BC003F00CC004F00F28D8B4AD
:100650002CEF03F02EEF03F02FEF03F00F2A0F28FB
:10066000D8B435EF03F037EF03F03FEF03F00F504E
:10067000D8A43DEF03F03FEF03F051EF03F0000E7D
:10068000016E000E026E000E036E000E046E0F501F
:10069000D8A44DEF03F04FEF03F051EF03F0000E3D
:1006A0000D6E0FA056EF03F058EF03F05BEF03F071
:1006B000038E5CEF03F0039ED8900F30046E0DAEF6
:1006C00064EF03F066EF03F067EF03F0048E01C000
:1006D00001F002C002F003C003F004C004F01200F5
:1006E0000450800B116E04500424186E03AE7BEF8F
:1006F00003F07DEF03F07EEF03F018801850D8B4BC
:1007000084EF03F086EF03F09BEF03F01828D8A4E2
:100710008CEF03F08EEF03F096EF03F0000E016E06
:10072000000E026E000E036E000E046E038E000EAD
:10073000046EA3EF03F0000E016E000E026E000EB9
:10074000036E000E046E0850800B111A0850082426
:10075000196E07AEAEEF03F0B0EF03F0B1EF03F0A8
:1007600019801950D8B4B7EF03F0B9EF03F0CEEF0A
:1007700003F01928D8A4BFEF03F0C1EF03F0C9EFCD
:1007800003F0000E056E000E066E000E076E000EE2
:10079000086E078E000E086ED6EF03F0000E056E91
:1007A000000E066E000E076E000E086E0550061055
:1007B00007100810D8A4DFEF03F0E1EF03F0F9EF22
:1007C00003F0000E016E000E026E000E036E000EAE
:1007D000046E800E03127F0E04121150041201C029
:1007E00001F002C002F003C003F004C004F03CEFCB
:1007F00005F01850D8A4FFEF03F001EF04F00BEF61
:1008000004F0000E016E000E026E000E036E000E6C
:10081000046E3CEF05F0195018C009F00A6A095E31
:10082000000E0A5A7F0E0924126E000E0A20136E63
:1008300001C00DF002C00EF003C00FF004C010F0B4
:10084000000E016E000E026E000E036E000E046EAE
:10085000000E146E000E156E000E166E000E176E52
:10086000000E196E6CEF04F01950D8B43AEF04F092
:100870003CEF04F053EF04F0D8900D360E360F36EF
:100880001036D890013602360336043617AE4BEFD9
:1008900004F04DEF04F04EEF04F00180D8901436D0
:1008A00015361636173605500D5C06500E58075093
:1008B0000F5808501058D8A060EF04F062EF04F011
:1008C0006BEF04F0178C05500D5E06500E5A075062
:1008D0000F5A0850105A192A190E196472EF04F0B1
:1008E00074EF04F034EF04F00D500E100F101010E0
:1008F000D8B47DEF04F07FEF04F097EF04F014809C
:1009000097EF04F0D890013602360336043617AE5E
:100910008CEF04F08EEF04F08FEF04F00180D8909C
:1009200014361536163617361206D8A0130603AE3F
:100930009CEF04F09EEF04F082EF04F0000E196EBD
:1009400017AEA5EF04F0A7EF04F0CBEF04F0FF0E15
:100950001414096EFF0E15140A6EFF0E16140B6E9A
:100960007F0E17140C6E09500A100B100C10D8B41F
:10097000BCEF04F0BEEF04F0C2EF04F0010E196EFC
:10098000CBEF04F001A0C7EF04F0C9EF04F0CBEF08
:1009900004F0BEEF04F01950D8B4D1EF04F0D3EF57
:1009A00004F0F7EF04F0010E0126000E02220322EC
:1009B000042204A0DEEF04F0E0EF04F0F7EF04F00F
:1009C00001C009F002C00AF003C00BF004C00CF033
:1009D0000C340C320B320A32093209C001F00AC061
:1009E00002F00BC003F00CC004F0124A132A13BE2D
:1009F00002EF05F0135008E11228D8A002EF05F02D
:100A000004EF05F00FEF05F0000E136E1268000EF4
:100A1000016E000E026E000E036E000E046E13BE19
:100A20001CEF05F0135006E11204D8B01AEF05F0E0
:100A30001CEF05F02AEF05F0000E136E000E126E8B
:100A4000000E016E000E026E000E036E000E046EAC
:100A5000000E116E12C018F018A031EF05F033EF40
:100A600005F036EF05F0038E37EF05F0039ED890C2
:100A70001830046EEDEF03F01200116E1150D8B46F
:100A800044EF05F046EF05F068EF05F00CBE4DEFC2
:100A900005F04BEF05F068EF05F009C00DF00AC056
:100AA0000EF00BC00FF00CC010F00D1E0E1E0F1E2E
:100AB000101E0D2A000E0E220F2210220DC013F060
:100AC0000EC014F00FC015F010C016F070EF05F056
:100AD00009C013F00AC014F00BC015F00CC016F0DA
:100AE00009500A100B100C10D8A479EF05F07BEF19
:100AF00005F085EF05F0000E096E000E0A6E000E7F
:100B00000B6E000E0C6E16EF06F0960E126E8FEF47
:100B100005F0122AD8901632153214321332000E14
:100B200013140D6E000E14140E6E000E15140F6EBD
:100B3000FE0E1614106E0D500E100F101010D8A4CB
:100B4000A4EF05F0A6EF05F089EF05F0B4EF05F08E
:100B5000122A010E1326000E142215221622D890F6
:100B60001632153214321332000E13140D6E000EAD
:100B700014140E6E000E15140F6EFF0E1614106E68
:100B80000D500E100F101010D8A4C9EF05F0CBEFC8
:100B900005F0A8EF05F0D3EF05F01206D890133654
:100BA00014361536163615BED8EF05F0DAEF05F017
:100BB000E2EF05F0020E1260E0EF05F0E2EF05F063
:100BC000CDEF05F012B0E7EF05F0E9EF05F0EAEF41
:100BD00005F0159ED890123212C00DF00E6A0F6A01
:100BE000106A0DC010F00F6A0E6A0D6A0D501312D4
:100BF0000E5014120F501512105016121150D8B476
:100C000004EF06F006EF06F00EEF06F00CBE0DEF57
:100C100006F00BEF06F00EEF06F0168E13C009F08B
:100C200014C00AF015C00BF016C00CF01200C2EC94
:100C300009F0CDEC09F00009D8B421EF06F023EF5C
:100C400006F089EF06F085EC09F0346E460E341894
:100C5000D8A42DEF06F02FEF06F043EF06F0010EBB
:100C6000066E020E076E62EC08F0020E2B6E040E8A
:100C70002A6EBA0EE82EFED72A2EFCD72B2EFAD7D4
:100C800000D09CEF06F0420E3418D8A44AEF06F0CC
:100C90004CEF06F054EF06F00F0E066E020E076ED4
:100CA00062EC08F035EF06F04C0E3418D8A45BEF78
:100CB00006F05DEF06F065EF06F0190E066E020E07
:100CC000076E62EC08F035EF06F0520E3418D8A427
:100CD0006CEF06F06EEF06F076EF06F0090E066E8A
:100CE000020E076E62EC08F035EF06F0530E341872
:100CF000D8A47DEF06F07FEF06F087EF06F0140E24
:100D0000066E020E076E62EC08F035EF06F09CEFFF
:100D100006F0140E066E020E076E62EC08F09CEFF1
:100D200006F0140E066E020E076E62EC08F08B845D
:100D3000850EE82EFED700F0000E1E6E000E1F6E10
:100D4000400E206E410E216EE4EC07F01AC022F036
:100D50001BC023F01CC024F01DC025F0E4EC06F0FD
:100D6000D8B0B5EF06F0B7EF06F091EF06F0C4EF9C
:100D700006F0140E066E020E076E62EC08F08B840D
:100D8000850EE82EFED700F0000E1E6E000E1F6EC0
:100D9000400E206E410E216E66EC07F01AC022F064
:100DA0001BC023F01CC024F01DC025F0E4EC06F0AD
:100DB000D8B0DDEF06F0DFEF06F0B9EF06F08B9468
:100DC00019EF06F000EF00F0000E1E14266E000E64
:100DD0001F14276E800E2014286E7F0E2114296E9A
:100DE0002650271028102910D8A4F9EF06F0FBEFA1
:100DF00006F003EF07F0000E1E6E000E1F6E000ED1
:100E0000206E000E216E000E2214266E000E23149A
:100E1000276E800E2414286E7F0E2514296E26500E
:100E2000271028102910D8A418EF07F01AEF07F0A0
:100E300022EF07F0000E226E000E236E000E246ECD
:100E4000000E256E21AE27EF07F029EF07F032EFF5
:100E500007F01E6C1F1ED8B01F2A201ED8B0202AF3
:100E6000800E215625AE37EF07F039EF07F042EF3D
:100E700007F0226C231ED8B0232A241ED8B0242ABF
:100E8000800E2556000E1E1A000E1F1A000E201A84
:100E9000800E211A000E221A000E231A000E241AA8
:100EA000800E251A22501E5C23501F5824502058B3
:100EB00025502158D8B05FEF07F061EF07F064EFDD
:100EC00007F0D89065EF07F0D8801200000E436E4F
:100ED000000E446E000E456E000E466E000E476E0C
:100EE000000E486E000E496E000E4A6E8A82060E93
:100EF000E82EFED700D08A9281A081EF07F083EF21
:100F000007F07CEF07F027EC0AF081B08AEF07F0DA
:100F10008CEF07F085EF07F099EC09F001C009F0BC
:100F200002C00AF00B6A0C6A000E3DEC05F009C025
:100F300047F00AC048F00BC049F00CC04AF025EC5D
:100F40000AF0000E026E000E016E71EC09F047C04F
:100F500001F048C002F049C003F04AC004F0AE0EF0
:100F6000056E470E066E6B0E076E420E086E70EC35
:100F700003F001C043F002C044F003C045F004C0D8
:100F800046F043C001F044C002F045C003F046C043
:100F900004F0000E056E000E066E800E076E3F0E0A
:100FA000086E10EC01F001C043F002C044F003C031
:100FB00045F004C046F043C01AF044C01BF045C0E1
:100FC0001CF046C01DF01200000E436E000E446E71
:100FD000000E456E000E466E000E476E000E486E07
:100FE000000E496E000E4A6E8C80060EE82EFED76B
:100FF00000D08C9083A2FFEF07F001EF08F0FAEF2A
:1010000007F027EC0AF083B208EF08F00AEF08F0C7
:1010100003EF08F099EC09F001C009F002C00AF0F2
:101020000B6A0C6A000E3DEC05F009C047F00AC0DF
:1010300048F00BC049F00CC04AF025EC0AF0000E55
:10104000026E000E016E71EC09F047C001F048C05D
:1010500002F049C003F04AC004F0AE0E056E470E20
:10106000066E6B0E076E420E086E70EC03F001C048
:1010700043F002C044F003C045F004C046F043C052
:1010800001F044C002F045C003F046C004F0000E79
:10109000056E000E066E800E076E3F0E086E10EC99
:1010A00001F001C043F002C044F003C045F004C0A9
:1010B00046F043C01AF044C01BF045C01CF046C0C7
:1010C0001DF0120006C001F007C002F0010E036E11
:1010D000020E046ED4EC08F001500210D8A473EF95
:1010E00008F075EF08F079EF08F00BEC0AF0D3EF99
:1010F00008F006C001F007C002F00F0E036E020EEA
:10110000046ED4EC08F001500210D8A48AEF08F065
:101110008CEF08F090EF08F010EC0AF0D3EF08F035
:1011200006C001F007C002F0190E036E020E046E35
:10113000D4EC08F001500210D8A4A1EF08F0A3EFFE
:1011400008F0A7EF08F001EC0AF0D3EF08F006C0B2
:1011500001F007C002F0090E036E020E046ED4EC1B
:1011600008F001500210D8A4B8EF08F0BAEF08F068
:10117000BEEF08F006EC0AF0D3EF08F006C001F06D
:1011800007C002F0140E036E020E046ED4EC08F0D9
:1011900001500210D8A4CFEF08F0D1EF08F0D3EF40
:1011A00008F0FCEC09F01200DAEF08F0014A022A1C
:1011B000034A042A01C0F6FF02C0F7FF0800F5CF7A
:1011C00005F003C0F6FF04C0F7FF0800F55005184E
:1011D000D8A4EDEF08F0EFEF08F0FDEF08F001C044
:1011E000F6FF02C0F7FF0800F5500009D8A4FBEF96
:1011F00008F0FDEF08F0D6EF08F001C0F6FF02C0DE
:10120000F7FF0800F5CF05F003C0F6FF04C0F7FFB5
:101210000800F550055C016E026AD8A002061200B3
:10122000000E8D6E040E8C6E080E896E000E8A6E96
:10123000020E8B6E060E966EC00E926EFD0E936EB3
:10124000BB0E946EBE0E956E380E0F013B6F3C0EBA
:101250003A6F3C0E396F060E3C6F000E386F000E71
:10126000616EF18E1200080E706E900E716E240E7B
:10127000726ECF0E756E000E766E000E016E000E51
:10128000026EE3EC09F0000E016E000E026EDEEC61
:1012900009F0000E016E000E026EE8EC09F0000E7F
:1012A0004B6E1200080EB86E900EAB6E240EAC6E34
:1012B000CF0EAF6E000EB06E000E016E000E026E0D
:1012C000F2EC09F0000E016E000E026EEDEC09F07A
:1012D000000E016E000E026EF7EC09F0000E4C6E6F
:1012E0001200CDA476EF09F078EF09F080EF09F055
:1012F000CD900250CF6E01C0CEFFCD8084EF09F0BB
:101300000250CF6E01C0CEFF12009EAA8AEF09F0F4
:101310008CEF09F085EF09F0000E4C6EABA293EF55
:1013200009F095EF09F097EF09F0AB98AB88AE5054
:101330001200CD82CECF08F0CFCF07F00750036E5A
:101340000850056E03C006F005C001F006C002F0AB
:101350001200000ECC6E000ECF6E000ECE6ECECF01
:101360003BF0CFCF3CF09E90130ECD6E120000EEFE
:1013700043F00A0EEE6AE806FDE1000EF86E000189
:1013800017EF06F010EC09F0D7EC09F0A9EC09F022
:1013900052EC09F033EC09F012009EBAD2EF09F0DA
:1013A000D5EF09F0010ED6EF09F0000E1200600E25
:1013B000D36E040ED26E000E9B6E120001C037F089
:1013C00002C038F0120001C039F002C03AF0120039
:1013D00001C035F002C036F0120001C03FF002C07B
:1013E00040F0120001C041F002C042F0120001C002
:1013F0003DF002C03EF012002BEC0AF029EC0AF09E
:10140000120019EC0AF029EC0AF012002BEC0AF099
:1014100015EC0AF0120019EC0AF015EC0AF01200B3
:1014200021EC0AF01DEC0AF012008D808988899A5F
:10143000120089808984899212008D808998898A16
:1014400012008980899489821200CD901200CD808B
:0A14500012008D9012008990120026
:020000040020DA
:08000000FFFFFFFFFFFFFFFF00
:020000040030CA
:0E000000FF28193CFF3F81FF03C003E00340CF
:00000001FF
