:020000040000FA
:0400000017EF00F006
:100008001B82F2A60AEF00F00CEF00F015EF00F0EB
:10001800F2A011EF00F013EF00F015EF00F008EC7C
:1000280001F01B921100D8EF00F0B7EC00F0410E80
:10003800CDEC00F0540ECDEC00F00D0ECDEC00F040
:100048000A0ECDEC00F0A3EC00F00F6EA3EC00F06C
:10005800106EA3EC00F0116EA3EC00F0126E0F50BE
:10006800C2EC00F01050C2EC00F01150C2EC00F0ED
:100078001250C2EC00F03FEF00F017EF00F0000E56
:100088008D6E000E8C6E000E896E000E8A6E000E4C
:100098008B6E070E966E92689368BF0E946EBF0EB5
:1000A800956E3F0E0F013B6F3C0E3A6F3F0E396F56
:1000B800070E3C6F2F0E386F000E616EF18EF286C0
:1000C8001200080E706E900E716E240E726E060E7F
:1000D800756E000E766E000E0D6E000E0E6EEDEC57
:1000E80000F0000E0D6E000E0E6EE8EC00F0000E33
:1000F8000D6E000E0E6EF2EC00F0000E196E12007E
:10010800080EB86E900EAB6E240EAC6E060EAF6E77
:10011800000EB06E000E0D6E000E0E6EFCEC00F0C0
:10012800000E0D6E000E0E6EF7EC00F0000E0D6E58
:10013800000E0E6E01EC01F0000E1A6E12009EAA5F
:10014800A8EF00F0AAEF00F0A3EF00F0000E1A6E7F
:10015800ABA2B1EF00F0B3EF00F0B5EF00F0AB9851
:10016800AB88AE50120006EC01F043EC00F0E1EC75
:1001780000F084EC00F065EC00F012000D6EA4A80D
:10018800C8EF00F0CAEF00F0C3EF00F00DC073FF36
:1001980012000D6E9EA8D3EF00F0D5EF00F0CEEF61
:1001A80000F00DC0ADFF12001A6A196A1B901B926D
:1001B800000EF86E000119EF00F0100ED36E140E49
:1001C800D26E000E9B6E12000DC003F00EC004F03C
:1001D80012000DC005F00EC006F012000DC001F0AF
:1001E8000EC002F012000DC009F00EC00AF0120095
:1001F8000DC00BF00EC00CF012000DC007F00EC0C1
:0C02080008F01200D09E1200F2901200CC
:020000040020DA
:08000000FFFFFFFFFFFFFFFF00
:020000040030CA
:0E000000FF28193CFF3F81FF03C003E00340CF
:00000001FF
