:020000040000FA
:040000004DEF04F0CC
:10060000004630525741524400464F5257415244DF
:10061000005249474854004241434B0053544F5005
:07062000004C4546540000A8
:1006280006C001F007C002F0090E036E060E046E44
:10063800F2EC03F001500210D8A425EF03F027EFE5
:1006480003F02BEF03F06FEC04F085EF03F006C026
:1006580001F007C002F0170E036E060E046EF2ECEE
:1006680003F001500210D8A43CEF03F03EEF03F072
:1006780042EF03F074EC04F085EF03F006C001F0DC
:1006880007C002F0210E036E060E046EF2EC03F0B2
:1006980001500210D8A453EF03F055EF03F059EFBF
:1006A80003F065EC04F085EF03F006C001F007C025
:1006B80002F0110E036E060E046EF2EC03F0015008
:1006C8000210D8A46AEF03F06CEF03F070EF03F0A8
:1006D8006AEC04F085EF03F006C001F007C002F0F1
:1006E8001C0E036E060E046EF2EC03F001500210AD
:1006F800D8A481EF03F083EF03F085EF03F060ECFB
:1007080004F012005BEC04F0010E066E060E076E94
:1007180014EC03F0020E096E450E086EAA0EE82EC0
:10072800FED7082EFCD7092EFAD71C0E066E060E29
:10073800076E14EC03F0020E096E450E086EAA0E41
:10074800E82EFED7082EFCD7092EFAD7170E066E0C
:10075800060E076E14EC03F0020E096E450E086EC5
:10076800AA0EE82EFED7082EFCD7092EFAD71C0EA3
:10077800066E060E076E14EC03F0020E096E450EA7
:10078800086EAA0EE82EFED7082EFCD7092EFAD737
:10079800210E066E060E076E14EC03F0020E096EAB
:1007A800450E086EAA0EE82EFED7082EFCD7092E95
:1007B800FAD7110E066E060E076E14EC03F0020E41
:1007C800096E450E086EAA0EE82EFED7082EFCD735
:1007D800092EFAD788EF03F000EF00F0F8EF03F0E6
:1007E800014A022A034A042A01C0F6FF02C0F7FFA1
:1007F8000800F5CF05F003C0F6FF04C0F7FF0800B6
:10080800F5500518D8A40BEF04F00DEF04F01BEF1A
:1008180004F001C0F6FF02C0F7FF0800F550000918
:10082800D8A419EF04F01BEF04F0F4EF03F001C0B3
:10083800F6FF02C0F7FF0800F5CF05F003C0F6FF8A
:1008480004C0F7FF0800F550055C016E026AD8A0E5
:1008580002061200000E8D6E000E8C6E000E896E60
:10086800000E8A6E000E8B6E040E966EF00E926E5F
:100878009368946895680F013B69FC0E3A6F3F0EC8
:10088800396F070E3C6F2F0E386F000E616EF18EB8
:100898001200000EF86E060EF76E000186EF03F0E8
:1008A800300ED36E040ED26E000E9B6E12002EEC2C
:1008B80004F054EC04F012008BEC04F089EC04F022
:1008C80012007DEC04F089EC04F012008BEC04F0CB
:1008D80079EC04F012007DEC04F079EC04F01200DD
:1008E80085EC04F081EC04F01200898489968D82ED
:1008F8001200898089928D801200899489868D8260
:100908001200899089828D8012008D9212008D903C
:020918001200CB
:020000040020DA
:08000000FFFFFFFFFFFFFFFF00
:020000040030CA
:0E000000FF28193CFF3F81FF0FC00FE00F40AB
:00000001FF
