:020000040000FA
:040000004DEF02F0CE
:10020000004630525741524400464F5257415244E3
:10021000005249474854004241434B0053544F5009
:07022000004C4546540000AC
:1002280006C001F007C002F0090E036E020E046E4C
:10023800F2EC01F001500210D8A425EF01F027EFED
:1002480001F02BEF01F06FEC02F085EF01F006C032
:1002580001F007C002F0170E036E020E046EF2ECF6
:1002680001F001500210D8A43CEF01F03EEF01F07C
:1002780042EF01F074EC02F085EF01F006C001F0E6
:1002880007C002F0210E036E020E046EF2EC01F0BC
:1002980001500210D8A453EF01F055EF01F059EFC7
:1002A80001F065EC02F085EF01F006C001F007C02F
:1002B80002F0110E036E020E046EF2EC01F0015012
:1002C8000210D8A46AEF01F06CEF01F070EF01F0B2
:1002D8006AEC02F085EF01F006C001F007C002F0F9
:1002E8001C0E036E020E046EF2EC01F001500210B7
:1002F800D8A481EF01F083EF01F085EF01F060EC05
:1003080002F012005BEC02F0010E066E020E076EA0
:1003180014EC01F0020E096E450E086EAA0EE82EC6
:10032800FED7082EFCD7092EFAD71C0E066E020E31
:10033800076E14EC01F0020E096E450E086EAA0E47
:10034800E82EFED7082EFCD7092EFAD7170E066E10
:10035800020E076E14EC01F0020E096E450E086ECF
:10036800AA0EE82EFED7082EFCD7092EFAD71C0EA7
:10037800066E020E076E14EC01F0020E096E450EB1
:10038800086EAA0EE82EFED7082EFCD7092EFAD73B
:10039800210E066E020E076E14EC01F0020E096EB5
:1003A800450E086EAA0EE82EFED7082EFCD7092E99
:1003B800FAD7110E066E020E076E14EC01F0020E4B
:1003C800096E450E086EAA0EE82EFED7082EFCD739
:1003D800092EFAD788EF01F000EF00F0F8EF01F0EE
:1003E800014A022A034A042A01C0F6FF02C0F7FFA5
:1003F8000800F5CF05F003C0F6FF04C0F7FF0800BA
:10040800F5500518D8A40BEF02F00DEF02F01BEF22
:1004180002F001C0F6FF02C0F7FF0800F55000091E
:10042800D8A419EF02F01BEF02F0F4EF01F001C0BD
:10043800F6FF02C0F7FF0800F5CF05F003C0F6FF8E
:1004480004C0F7FF0800F550055C016E026AD8A0E9
:1004580002061200000E8D6E000E8C6E000E896E64
:10046800000E8A6E000E8B6E040E966EF00E926E63
:100478009368946895680F013B69FC0E3A6F3F0ECC
:10048800396F070E3C6F2F0E386F000E616EF18EBC
:100498001200000EF86E020EF76E000186EF01F0F2
:1004A800300ED36E040ED26E000E9B6E12002EEC30
:1004B80002F054EC02F012008BEC02F089EC02F02E
:1004C80012007DEC02F089EC02F012008BEC02F0D5
:1004D80079EC02F012007DEC02F079EC02F01200E7
:1004E80085EC02F081EC02F01200898489968D82F5
:1004F8001200898089928D801200899489868D8264
:100508001200899089828D8012008D9212008D9040
:020518001200CF
:020000040020DA
:08000000FFFFFFFFFFFFFFFF00
:020000040030CA
:0E000000FF28193CFF3F81FF03C003E00340CF
:00000001FF
