:020000040000FA
:0400000054EF03F0C6
:100200000048656C6C6F2066726F6D204D504C41DC
:10021000422058707265737321200A200D00463009
:10022000525741524400464F5257415244004D6F7D
:1002300076696E67005249474854004241434B007B
:1002400053544F50004C454654006F6B000037C06C
:10025000D9FF38C0DAFFDECFF6FFDDCFF7FF0800A9
:10026000F550250AD8A437EF01F039EF01F080EFFF
:1002700001F037C0D9FF38C0DAFFDE2A000EDD22D8
:10028000000E246E000E236E23C027F024C028F039
:100290002568266837C0D9FF38C0DAFFDECFF6FF01
:1002A000DDCFF7FF0800F550250AD8A45AEF01F07A
:1002B0005CEF01F073EF01F037C0D9FF38C0DAFF0F
:1002C000DE2A000EDD22000E2D6E250E2C6E35C0AE
:1002D0002EF036C02FF00EEC02F0000E366E010E3E
:1002E000356E9BEF01F037C0D9FF38C0DAFFDE2A48
:1002F000000EDD22000E366E000E356E9BEF01F013
:1003000037C0D9FF38C0DAFFDECFF6FFDDCFF7FF09
:100310000800F5502C6E2D6A35C02EF036C02FF037
:100320000EEC02F037C0D9FF38C0DAFFDE2A000E2B
:10033000DD226DEF01F0120049C02AF04AC02BF017
:10034000260E2C6E020E2D6E59EC02F02A502B1048
:10035000D8A4ADEF01F0AFEF01F0B3EF01F0A2ECE4
:1003600003F00DEF02F049C02AF04AC02BF03B0E1B
:100370002C6E020E2D6E59EC02F02A502B10D8A4D0
:10038000C4EF01F0C6EF01F0CAEF01F0ACEC03F0EE
:100390000DEF02F049C02AF04AC02BF0450E2C6E3A
:1003A000020E2D6E59EC02F02A502B10D8A4DBEF70
:1003B00001F0DDEF01F0E1EF01F098EC03F00DEF5B
:1003C00002F049C02AF04AC02BF0350E2C6E020E06
:1003D0002D6E59EC02F02A502B10D8A4F2EF01F048
:1003E000F4EF01F0F8EF01F09DEC03F00DEF02F0F7
:1003F00049C02AF04AC02BF0400E2C6E020E2D6E22
:1004000059EC02F02A502B10D8A409EF02F00BEFA0
:1004100002F00DEF02F093EC03F012002E502F10BB
:10042000D8B415EF02F017EF02F020EF02F02E50D3
:100430002F10D8A41EEF02F020EF02F025EF02F0FB
:100440002C50A7EC03F058EF02F020EE04F02E50F1
:10045000D9262F50DA22DE50DE10D8B432EF02F067
:1004600034EF02F04FEF02F020EE04F02E50D926C8
:100470002F50DA2210EE02F02E50E1262F50E22209
:10048000DE50E65CE650800A346EDE50800A345856
:10049000D8B04DEF02F04FEF02F058EF02F020EE2F
:1004A00002F02E50D9262F50DA22DE2A000EDD224D
:1004B00012005FEF02F02A4A2B2A2C4A2D2A2AC06A
:1004C000F6FF2BC0F7FF0800F5CF2EF02CC0F6FF8B
:1004D0002DC0F7FF0800F5502E18D8A472EF02F0D7
:1004E00074EF02F082EF02F02AC0F6FF2BC0F7FF94
:1004F0000800F5500009D8A480EF02F082EF02F066
:100500005BEF02F02AC0F6FF2BC0F7FF0800F5CF23
:100510002EF02CC0F6FF2DC0F7FF0800F5502E5C22
:100520002A6E2B6AD8A02B0612003DC041F03EC0B7
:1005300042F0000E226E000E216EB1EF02F03BC0C1
:1005400035F03CC036F0410E376E000E386E3FC0BD
:1005500039F040C03AF027EC01F0355021263650F2
:10056000222241C0F6FF42C0F7FF0800F550000903
:10057000D8A4BDEF02F0BFEF02F09FEF02F021C060
:100580003BF022C03CF0120074EC03F0BDEC03F031
:10059000010E436E020E446E41EC03F08994898291
:1005A00089801E0E496E020E4A6E9CEC01F02E0EE2
:1005B000436E020E446E41EC03F05C0E4C6E510E25
:1005C0004B6E600EE82EFED74B2EFCD74C2EFAD782
:1005D00000D0CEEF02F000EF00F0000E8D6E000EA6
:1005E0008C6E000E896E000E8A6E000E8B6E040EED
:1005F000966EC00E926E9368BF0E946EFE0E956E50
:10060000FC0E0F013B6F3C0E3A6F3F0E396F060E2A
:100610003C6F000E386F000E616EF18E1200080EF6
:10062000B86E900EAB6E240EAC6ECF0EAF6E000E99
:10063000B06E000E2A6E000E2B6E89EC03F0000ED9
:100640002A6E000E2B6E84EC03F0000E2A6E000E54
:100650002B6E8EEC03F0000E296E1200D59CFE0E60
:10066000D76ED668D650D7CF2AF02B6A2AC02BF087
:100670002A6A2A10536E2B50546EF294900ED56E47
:100680001200450E476E000E486E000E3B6E000EC7
:100690003C6E43C03DF044C03EF0470E3F6E000E3E
:1006A000406E95EC02F0120000EE01F0290EEE6AA9
:1006B000E806FDE1000EF86E0001C4EF02F02A6EBC
:1006C0009EA865EF03F067EF03F060EF03F02AC028
:1006D000ADFF12008994898289804A0E436E020E12
:1006E000446E41EC03F01200EDEC02F07DEC03F0FF
:1006F0002EEC03F00FEC03F01200600ED36E040E2C
:10070000D26E000E9B6E12002AC04FF02BC050F02C
:1007100012002AC051F02BC052F012002AC04DF036
:100720002BC04EF01200C1EC03F0BFEC03F012003E
:100730006AEC03F0BFEC03F01200C1EC03F0B1EC83
:1007400003F012006AEC03F0B1EC03F012002B6E20
:100750002B505FEC03F01200B9EC03F0B5EC03F0A2
:1007600012008988899A8D8012008998898A8D80E3
:1007700012008994898289801200898612008D90E6
:0607800012008990120036
:020000040020DA
:08000000FFFFFFFFFFFFFFFF00
:020000040030CA
:0E000000FF28193CFF3F81FF03C003E00340CF
:00000001FF
