:020000040000FA
:040000004FEF02F0CC
:10020000004630525741524400464F5257415244E3
:10021000005249474854004241434B0053544F5009
:07022000004C4546540000AC
:1002280006C001F007C002F0090E036E020E046E4C
:10023800F4EC01F001500210D8A425EF01F027EFEB
:1002480001F02BEF01F071EC02F085EF01F006C030
:1002580001F007C002F0170E036E020E046EF4ECF4
:1002680001F001500210D8A43CEF01F03EEF01F07C
:1002780042EF01F076EC02F085EF01F006C001F0E4
:1002880007C002F0210E036E020E046EF4EC01F0BA
:1002980001500210D8A453EF01F055EF01F059EFC7
:1002A80001F067EC02F085EF01F006C001F007C02D
:1002B80002F0110E036E020E046EF4EC01F0015010
:1002C8000210D8A46AEF01F06CEF01F070EF01F0B2
:1002D8006CEC02F085EF01F006C001F007C002F0F7
:1002E8001C0E036E020E046EF4EC01F001500210B5
:1002F800D8A481EF01F083EF01F085EF01F062EC03
:1003080002F012005DEC02F08BEC02F0010E066EBA
:10031800020E076E14EC01F0020E096E450E086E0F
:10032800AA0EE82EFED7082EFCD7092EFAD71C0EE7
:10033800066E020E076E14EC01F0020E096E450EF1
:10034800086EAA0EE82EFED7082EFCD7092EFAD77B
:10035800170E066E020E076E14EC01F0020E096EFF
:10036800450E086EAA0EE82EFED7082EFCD7092ED9
:10037800FAD71C0E066E020E076E14EC01F0020E80
:10038800096E450E086EAA0EE82EFED7082EFCD779
:10039800092EFAD7210E066E020E076E14EC01F034
:1003A800020E096E450E086EAA0EE82EFED7082E1C
:1003B800FCD7092EFAD7110E066E020E076E14EC42
:1003C80001F0020E096E450E086EAA0EE82EFED741
:1003D800082EFCD7092EFAD78AEF01F000EF00F0BB
:1003E800FAEF01F0014A022A034A042A01C0F6FF83
:1003F80002C0F7FF0800F5CF05F003C0F6FF04C000
:10040800F7FF0800F5500518D8A40DEF02F00FEF1C
:1004180002F01DEF02F001C0F6FF02C0F7FF08006E
:10042800F5500009D8A41BEF02F01DEF02F0F6EF1B
:1004380001F001C0F6FF02C0F7FF0800F5CF05F094
:1004480003C0F6FF04C0F7FF0800F550055C016E15
:10045800026AD8A002061200000E8D6E000E8C6E85
:10046800000E896E000E8A6E000E8B6E040E966E5C
:10047800C00E926E9368946895680F013B69FC0EF4
:100488003A6F3F0E396F070E3C6F2F0E386F000E14
:10049800616EF18E1200000EF86E020EF76E00010A
:1004A80086EF01F0300ED36E040ED26E000E9B6EF6
:1004B800120030EC02F056EC02F012008FEC02F061
:1004C8008DEC02F012007FEC02F08DEC02F01200CD
:1004D8008FEC02F07BEC02F012007FEC02F07BEC78
:1004E80002F0120087EC02F083EC02F01200898817
:1004F800899A8D801200898489928980120089984E
:10050800898A8D801200899489828980120089865F
:0A05180012008D801200898012008D
:020000040020DA
:08000000FFFFFFFFFFFFFFFF00
:020000040030CA
:0E000000FF28193CFF3F81FF03C003E00340CF
:00000001FF
