:020000040000FA
:0400000043EF02F0D8
:100200000068656C6C6F0000086E08500F0B026E82
:100210000850F00B036E8C8603380F0BA6EC01F030
:100220008B88820E056E330E046E00F00406D8A093
:10023000050605BE24EF01F0055008E10404D8A02E
:1002400024EF01F026EF01F015EF01F08B9802503A
:10025000A6EC01F08B88820E076E330E066E00F05E
:100260000606D8A0070607BE3EEF01F0075008E1DA
:100270000604D8A03EEF01F040EF01F02FEF01F0AF
:100280008B981200056E0504D8A449EF01F04BEFDE
:1002900001F05CEF01F004507F0F086E08380F0B7F
:1002A000066E08500F0B076E065033EC02F0075035
:1002B00033EC02F074EF01F0020E0518D8A463EFDE
:1002C00001F065EF01F074EF01F00450BF0F086E0C
:1002D00008380F0B066E08500F0B076E065033ECF4
:1002E00002F0075033EC02F01200000EA6EC01F011
:1002F000030E33EC02F00D0E046EFC0EE82EFED75A
:10030000042EFCD7030E33EC02F01D0E046E910E8A
:10031000E82EFED7042EFCD700F0030E33EC02F0DB
:10032000020E33EC02F0020E33EC02F0080E33EC56
:1003300002F0000E33EC02F00C0E33EC02F0000E73
:1003400033EC02F0060E33EC02F01200016E01A055
:10035000ACEF01F0AEEF01F0B1EF01F0898EB2EF3A
:1003600001F0899E01A2B7EF01F0B9EF01F0BCEFF7
:1003700001F0898CBDEF01F0899C01A4C2EF01F06E
:10038000C4EF01F0C7EF01F08B80C8EF01F08B9054
:1003900001A6CDEF01F0CFEF01F0D2EF01F08B829B
:1003A000D3EF01F08B921200000E0E6E000E0D6E58
:1003B000EAEF01F00D5009240B6E0E500A200C6E6E
:1003C0000BC0F6FF0CC0F7FF0800F55004EC01F07D
:1003D0000D4A0E2A0D5009240B6E0E500A200C6E89
:1003E0000BC0F6FF0CC0F7FF0800F5500009D8A4B9
:1003F000FCEF01F0FEEF01F0DAEF01F01200000E69
:100400008D6E000E8C6E000E896E000E8A6E000ED0
:100410008B6E070E966E3F0E926E9368EC0E946E86
:10042000F70E956E0F013B69FC0E3A6F3F0E396F68
:10043000070E3C6F2F0E386F000E616EF18E1200AA
:1004400051EC02F075EC01F0010E046E010E42EC6D
:1004500001F0010E096E020E0A6ED4EC01F02FEFCE
:1004600002F000EF00F0036E8C960350A6EC01F052
:100470008B880B0E026E620EE82EFED7022EFCD782
:1004800000D08B981200000EF86E020EF76E00017D
:1004900020EF02F0600ED36E040ED26E000E9B6E43
:0C04A0001200FFEC01F04AEC02F0120028
:020000040020DA
:08000000FFFFFFFFFFFFFFFF00
:020000040030CA
:0E000000FF28193CFF3F81FF03C003E00340CF
:00000001FF
